{
  "contractName": "EcGasHelper",
  "abi": [
    {
      "inputs": [
        {
          "internalType": "uint256",
          "name": "_x",
          "type": "uint256"
        },
        {
          "internalType": "uint256",
          "name": "_y",
          "type": "uint256"
        },
        {
          "internalType": "uint256",
          "name": "_z",
          "type": "uint256"
        },
        {
          "internalType": "uint256",
          "name": "_pp",
          "type": "uint256"
        }
      ],
      "name": "_toAffine",
      "outputs": [
        {
          "internalType": "uint256",
          "name": "",
          "type": "uint256"
        },
        {
          "internalType": "uint256",
          "name": "",
          "type": "uint256"
        }
      ],
      "stateMutability": "nonpayable",
      "type": "function"
    },
    {
      "inputs": [
        {
          "internalType": "uint256",
          "name": "_x",
          "type": "uint256"
        },
        {
          "internalType": "uint256",
          "name": "_pp",
          "type": "uint256"
        }
      ],
      "name": "_invMod",
      "outputs": [
        {
          "internalType": "uint256",
          "name": "",
          "type": "uint256"
        }
      ],
      "stateMutability": "nonpayable",
      "type": "function"
    },
    {
      "inputs": [
        {
          "internalType": "uint8",
          "name": "_prefix",
          "type": "uint8"
        },
        {
          "internalType": "uint256",
          "name": "_x",
          "type": "uint256"
        },
        {
          "internalType": "uint256",
          "name": "_aa",
          "type": "uint256"
        },
        {
          "internalType": "uint256",
          "name": "_bb",
          "type": "uint256"
        },
        {
          "internalType": "uint256",
          "name": "_pp",
          "type": "uint256"
        }
      ],
      "name": "_deriveY",
      "outputs": [
        {
          "internalType": "uint256",
          "name": "",
          "type": "uint256"
        }
      ],
      "stateMutability": "nonpayable",
      "type": "function"
    },
    {
      "inputs": [
        {
          "internalType": "uint256",
          "name": "_x",
          "type": "uint256"
        },
        {
          "internalType": "uint256",
          "name": "_y",
          "type": "uint256"
        },
        {
          "internalType": "uint256",
          "name": "_aa",
          "type": "uint256"
        },
        {
          "internalType": "uint256",
          "name": "_bb",
          "type": "uint256"
        },
        {
          "internalType": "uint256",
          "name": "_pp",
          "type": "uint256"
        }
      ],
      "name": "_isOnCurve",
      "outputs": [
        {
          "internalType": "bool",
          "name": "",
          "type": "bool"
        }
      ],
      "stateMutability": "nonpayable",
      "type": "function"
    },
    {
      "inputs": [
        {
          "internalType": "uint256",
          "name": "_x",
          "type": "uint256"
        },
        {
          "internalType": "uint256",
          "name": "_y",
          "type": "uint256"
        },
        {
          "internalType": "uint256",
          "name": "_pp",
          "type": "uint256"
        }
      ],
      "name": "_ecInv",
      "outputs": [
        {
          "internalType": "uint256",
          "name": "",
          "type": "uint256"
        },
        {
          "internalType": "uint256",
          "name": "",
          "type": "uint256"
        }
      ],
      "stateMutability": "nonpayable",
      "type": "function"
    },
    {
      "inputs": [
        {
          "internalType": "uint256",
          "name": "_x1",
          "type": "uint256"
        },
        {
          "internalType": "uint256",
          "name": "_y1",
          "type": "uint256"
        },
        {
          "internalType": "uint256",
          "name": "_x2",
          "type": "uint256"
        },
        {
          "internalType": "uint256",
          "name": "_y2",
          "type": "uint256"
        },
        {
          "internalType": "uint256",
          "name": "_aa",
          "type": "uint256"
        },
        {
          "internalType": "uint256",
          "name": "_pp",
          "type": "uint256"
        }
      ],
      "name": "_ecAdd",
      "outputs": [
        {
          "internalType": "uint256",
          "name": "",
          "type": "uint256"
        },
        {
          "internalType": "uint256",
          "name": "",
          "type": "uint256"
        }
      ],
      "stateMutability": "nonpayable",
      "type": "function"
    },
    {
      "inputs": [
        {
          "internalType": "uint256",
          "name": "_x1",
          "type": "uint256"
        },
        {
          "internalType": "uint256",
          "name": "_y1",
          "type": "uint256"
        },
        {
          "internalType": "uint256",
          "name": "_x2",
          "type": "uint256"
        },
        {
          "internalType": "uint256",
          "name": "_y2",
          "type": "uint256"
        },
        {
          "internalType": "uint256",
          "name": "_aa",
          "type": "uint256"
        },
        {
          "internalType": "uint256",
          "name": "_pp",
          "type": "uint256"
        }
      ],
      "name": "_ecSub",
      "outputs": [
        {
          "internalType": "uint256",
          "name": "",
          "type": "uint256"
        },
        {
          "internalType": "uint256",
          "name": "",
          "type": "uint256"
        }
      ],
      "stateMutability": "nonpayable",
      "type": "function"
    },
    {
      "inputs": [
        {
          "internalType": "uint256",
          "name": "_k",
          "type": "uint256"
        },
        {
          "internalType": "uint256",
          "name": "_x",
          "type": "uint256"
        },
        {
          "internalType": "uint256",
          "name": "_y",
          "type": "uint256"
        },
        {
          "internalType": "uint256",
          "name": "_aa",
          "type": "uint256"
        },
        {
          "internalType": "uint256",
          "name": "_pp",
          "type": "uint256"
        }
      ],
      "name": "_ecMul",
      "outputs": [
        {
          "internalType": "uint256",
          "name": "",
          "type": "uint256"
        },
        {
          "internalType": "uint256",
          "name": "",
          "type": "uint256"
        }
      ],
      "stateMutability": "nonpayable",
      "type": "function"
    },
    {
      "inputs": [
        {
          "internalType": "uint256",
          "name": "_k",
          "type": "uint256"
        },
        {
          "internalType": "uint256",
          "name": "_nn",
          "type": "uint256"
        },
        {
          "internalType": "uint256",
          "name": "_lambda",
          "type": "uint256"
        }
      ],
      "name": "_decomposeScalar",
      "outputs": [
        {
          "internalType": "int256",
          "name": "",
          "type": "int256"
        },
        {
          "internalType": "int256",
          "name": "",
          "type": "int256"
        }
      ],
      "stateMutability": "nonpayable",
      "type": "function"
    },
    {
      "inputs": [
        {
          "internalType": "int256[4]",
          "name": "_scalars",
          "type": "int256[4]"
        },
        {
          "internalType": "uint256[4]",
          "name": "_points",
          "type": "uint256[4]"
        },
        {
          "internalType": "uint256",
          "name": "_aa",
          "type": "uint256"
        },
        {
          "internalType": "uint256",
          "name": "_beta",
          "type": "uint256"
        },
        {
          "internalType": "uint256",
          "name": "_pp",
          "type": "uint256"
        }
      ],
      "name": "_ecSimMul",
      "outputs": [
        {
          "internalType": "uint256",
          "name": "",
          "type": "uint256"
        },
        {
          "internalType": "uint256",
          "name": "",
          "type": "uint256"
        }
      ],
      "stateMutability": "nonpayable",
      "type": "function"
    }
  ],
  "bytecode": "0x608060405234801561001057600080fd5b50613699806100206000396000f3fe608060405234801561001057600080fd5b506004361061009e5760003560e01c8063b2520eca11610066578063b2520eca146102b4578063db31883314610326578063dff4496a146103a1578063e242fd12146103fe578063fcd3611e1461045b5761009e565b80631b7bbac8146100a35780633f2de870146100ef5780635f2b70221461015c5780637fdef8f0146101c8578063b145cbe314610239575b600080fd5b6100d9600480360360408110156100b957600080fd5b8101908080359060200190929190803590602001909291905050506104c2565b6040518082815260200191505060405180910390f35b610146600480360360a081101561010557600080fd5b81019080803560ff169060200190929190803590602001909291908035906020019092919080359060200190929190803590602001909291905050506104d6565b6040518082815260200191505060405180910390f35b6101b0600480360360a081101561017257600080fd5b8101908080359060200190929190803590602001909291908035906020019092919080359060200190929190803590602001909291905050506104f0565b60405180821515815260200191505060405180910390f35b61021c600480360360a08110156101de57600080fd5b81019080803590602001909291908035906020019092919080359060200190929190803590602001909291908035906020019092919050505061050a565b604051808381526020018281526020019250505060405180910390f35b610297600480360360c081101561024f57600080fd5b81019080803590602001909291908035906020019092919080359060200190929190803590602001909291908035906020019092919080359060200190929190505050610528565b604051808381526020018281526020019250505060405180910390f35b61030960048036036101608110156102cb57600080fd5b810190808060800190919291929080608001909192919290803590602001909291908035906020019092919080359060200190929190505050610548565b604051808381526020018281526020019250505060405180910390f35b610384600480360360c081101561033c57600080fd5b810190808035906020019092919080359060200190929190803590602001909291908035906020019092919080359060200190929190803590602001909291905050506105d4565b604051808381526020018281526020019250505060405180910390f35b6103e1600480360360608110156103b757600080fd5b810190808035906020019092919080359060200190929190803590602001909291905050506105f4565b604051808381526020018281526020019250505060405180910390f35b61043e6004803603606081101561041457600080fd5b8101908080359060200190929190803590602001909291908035906020019092919050505061060e565b604051808381526020018281526020019250505060405180910390f35b6104a56004803603608081101561047157600080fd5b8101908080359060200190929190803590602001909291908035906020019092919080359060200190929190505050610628565b604051808381526020018281526020019250505060405180910390f35b60006104ce8383610644565b905092915050565b60006104e58686868686610738565b905095945050505050565b60006104ff8686868686610827565b905095945050505050565b60008061051a87878787876108cb565b915091509550959350505050565b600080610539888888888888610905565b91509150965096945050505050565b6000806105c6876004806020026040519081016040528092919082600460200280828437600081840152601f19601f820116905080830192505050505050876004806020026040519081016040528092919082600460200280828437600081840152601f19601f820116905080830192505050505050878787610939565b915091509550959350505050565b6000806105e58888888888886109d8565b91509150965096945050505050565b600080610602858585610a66565b91509150935093915050565b60008061061c858585611018565b91509150935093915050565b60008061063786868686611034565b9150915094509492505050565b60008083141580156106565750818314155b8015610663575060008214155b6106d5576040517f08c379a000000000000000000000000000000000000000000000000000000000815260040180806020018281038252600e8152602001807f496e76616c6964206e756d62657200000000000000000000000000000000000081525060200191505060405180910390fd5b60008060019050600084905060005b6000871461072b578682816106f557fe5b04905082868061070157fe5b878061070957fe5b85840988038608809450819550505086878202830380985081935050506106e4565b8394505050505092915050565b600060028660ff16148061074f575060038660ff16145b6107a4576040517f08c379a00000000000000000000000000000000000000000000000000000000081526004018080602001828103825260228152602001806136426022913960400191505060405180910390fd5b600082806107ae57fe5b83806107b657fe5b8585806107bf57fe5b888a090884806107cb57fe5b85806107d357fe5b898a0989090890506107f381600460018601816107ec57fe5b048561108f565b905060008060028960ff1684018161080757fe5b061461081557818403610817565b815b9050809250505095945050505050565b600085600014806108385750818610155b806108435750846000145b8061084e5750818510155b1561085c57600090506108c2565b6000828061086657fe5b86870990506000838061087557fe5b88858061087e57fe5b8a8b09099050600086146108a457838061089457fe5b848061089c57fe5b878a09820890505b600085146108ba5783806108b457fe5b85820890505b808214925050505b95945050505050565b60008060008060006108e28a8a8a60018b8b6111bd565b9250925092506108f483838389611034565b945094505050509550959350505050565b600080600080610916888887611018565b915091506109288a8a84848a8a6109d8565b935093505050965096945050505050565b60008061094461353d565b60008060005b600481101561099e5761096c8b826004811061096257fe5b602002015161125b565b85836004811061097857fe5b6020020181945082815250505082821115610991578192505b808060010191505061094a565b5060008060006109b286868e8e8e8e611306565b9250925092506109c48383838c611034565b975097505050505050509550959350505050565b6000806000806000888b1415610a2957600086806109f257fe5b898c081415610a0a5760008094509450505050610a5b565b610a188b8b60018a8a611f1d565b809350819450829550505050610a47565b610a3a8b8b60018c8c60018c61203c565b8093508194508295505050505b610a5383838389611034565b945094505050505b965096945050505050565b6000806000848681610a7457fe5b069050610a7f61355f565b600181600060028110610a8e57fe5b602002018181525050600081600160028110610aa657fe5b602002018181525050610ab7613581565b8581600060028110610ac557fe5b6020020181815250508681600160028110610adc57fe5b6020020181815250505b70010000000000000000000000000000000081600060028110610b0557fe5b6020020151101580610b3b57508681600060028110610b2057fe5b602002015182600060028110610b3257fe5b60200201510210155b15610c4057600081600060028110610b4f57fe5b602002015182600160028110610b6157fe5b602002015181610b6d57fe5b04905081600060028110610b7d57fe5b602002015182600060028110610b8f57fe5b6020020151820283600160028110610ba357fe5b60200201510383600160028110610bb657fe5b6020020184600060028110610bc757fe5b602002018281525082815250505082600060028110610be257fe5b602002015183600060028110610bf457fe5b6020020151820284600160028110610c0857fe5b60200201510384600160028110610c1b57fe5b6020020185600060028110610c2c57fe5b602002018281525082815250505050610ae6565b610c486135a3565b81600060028110610c5557fe5b602002015181600060048110610c6757fe5b60200201818152505082600060028110610c7d57fe5b602002015160000381600160048110610c9257fe5b60200201818152505081600160028110610ca857fe5b602002015181600260048110610cba57fe5b60200201818152505082600160028110610cd057fe5b602002015160000381600360048110610ce557fe5b602002018181525050610cf66135c5565b610d1182600360048110610d0657fe5b60200201518661250d565b83600060038110610d1e57fe5b6020020184600160038110610d2f57fe5b6020020185600260038110610d4057fe5b60200201838152508381525083815250505050610d5b6135c5565b610d7983600160048110610d6b57fe5b60200201516000038761250d565b83600060038110610d8657fe5b6020020184600160038110610d9757fe5b6020020185600260038110610da857fe5b60200201838152508381525083815250505050610dc3613581565b610e3783600160038110610dd357fe5b60200201516fffffffffffffffffffffffffffffffff16608085600060038110610df957fe5b60200201516fffffffffffffffffffffffffffffffff16901b1760028d81610e1d57fe5b0485600260038110610e2b57fe5b6020020151018d6125eb565b82600060028110610e4457fe5b6020020183600160028110610e5557fe5b6020020182815250828152505050610e6b613581565b610edf83600160038110610e7b57fe5b60200201516fffffffffffffffffffffffffffffffff16608085600060038110610ea157fe5b60200201516fffffffffffffffffffffffffffffffff16901b1760028e81610ec557fe5b0485600260038110610ed357fe5b6020020151018e6125eb565b82600060028110610eec57fe5b6020020183600160028110610efd57fe5b602002018281525082815250505060008c86600260048110610f1b57fe5b602002015183600060028110610f2d57fe5b60200201510287600060048110610f4057fe5b602002015185600060028110610f5257fe5b6020020151028b030381610f6257fe5b07905060008d87600360048110610f7557fe5b602002015184600060028110610f8757fe5b60200201510288600160048110610f9a57fe5b602002015186600060028110610fac57fe5b6020020151600003020381610fbd57fe5b07905060028e81610fca57fe5b04610fd483612761565b1115610fe0578d820391505b60028e81610fea57fe5b04610ff482612761565b1115611000578d810390505b81819b509b5050505050505050505050935093915050565b60008084838585038161102757fe5b0691509150935093915050565b60008060006110438585610644565b90506000848061104f57fe5b82830990506000858061105e57fe5b828a0990506000868061106d57fe5b878061107557fe5b8486098a0990508181955095505050505094509492505050565b600080821415611107576040517f08c379a000000000000000000000000000000000000000000000000000000000815260040180806020018281038252600f8152602001807f4d6f64756c7573206973207a65726f000000000000000000000000000000000081525060200191505060405180910390fd5b600084141561111957600090506111b6565b600083141561112b57600190506111b6565b60006001905060007f800000000000000000000000000000000000000000000000000000000000000090505b60008111156111b057838186161515870a85848509099150836002820486161515870a85848509099150836004820486161515870a85848509099150836008820486161515870a85848509099150601081049050611157565b81925050505b9392505050565b6000806000808914156111d85787878792509250925061124f565b60008990506000806000600190505b600084146112415760006001851614611216576112098383838f8f8f8e61203c565b8093508194508295505050505b6002848161122057fe5b0493506112308c8c8c8c8c611f1d565b809c50819d50829e505050506111e7565b828282965096509650505050505b96509650969350505050565b600080600080841261126e576001611290565b7fffffffffffffffffffffffffffffffffffffffffffffffffffffffffffffffff5b905060008482029050600080600090506000604051925061012c83016040525b60008411156112f65760018416156112e557601084069050601060088211028185030193506008850260080385820201828401535b6001820191506002840493506112b0565b5081819550955050505050915091565b60008060006113136135c5565b61131b6135e7565b611328818a8a8a8a61277e565b6000805b60008c1115611ed1578b80600190039c505061137e8460006003811061134e57fe5b60200201518560016003811061136057fe5b60200201518660026003811061137257fe5b60200201518d8c611f1d565b8660006003811061138b57fe5b602002018760016003811061139c57fe5b60200201886002600381106113ad57fe5b602002018381525083815250838152505050508b8d6000600481106113ce57fe5b6020020151019050805160001a91506008821115611537576114f0846000600381106113f657fe5b60200201518560016003811061140857fe5b60200201518660026003811061141a57fe5b60200201518660006004811061142c57fe5b6020020151600287600f038161143e57fe5b046004811061144957fe5b602002015160006003811061145a57fe5b60200201518c8860006004811061146d57fe5b6020020151600289600f038161147f57fe5b046004811061148a57fe5b602002015160016003811061149b57fe5b60200201518e03816114a957fe5b06886000600481106114b757fe5b6020020151600289600f03816114c957fe5b04600481106114d457fe5b60200201516002600381106114e557fe5b60200201518e61203c565b866000600381106114fd57fe5b602002018760016003811061150e57fe5b602002018860026003811061151f57fe5b60200201838152508381525083815250505050611683565b60008211156116825761163f8460006003811061155057fe5b60200201518560016003811061156257fe5b60200201518660026003811061157457fe5b60200201518660006004811061158657fe5b60200201516002600188038161159857fe5b04600481106115a357fe5b60200201516000600381106115b457fe5b6020020151876000600481106115c657fe5b6020020151600260018903816115d857fe5b04600481106115e357fe5b60200201516001600381106115f457fe5b60200201518860006004811061160657fe5b6020020151600260018a038161161857fe5b046004811061162357fe5b602002015160026003811061163457fe5b60200201518e61203c565b8660006003811061164c57fe5b602002018760016003811061165d57fe5b602002018860026003811061166e57fe5b602002018381525083815250838152505050505b5b8b8d60016004811061169157fe5b6020020151019050805160001a915060088211156117fa576117b3846000600381106116b957fe5b6020020151856001600381106116cb57fe5b6020020151866002600381106116dd57fe5b6020020151866001600481106116ef57fe5b6020020151600287600f038161170157fe5b046004811061170c57fe5b602002015160006003811061171d57fe5b60200201518c8860016004811061173057fe5b6020020151600289600f038161174257fe5b046004811061174d57fe5b602002015160016003811061175e57fe5b60200201518e038161176c57fe5b068860016004811061177a57fe5b6020020151600289600f038161178c57fe5b046004811061179757fe5b60200201516002600381106117a857fe5b60200201518e61203c565b866000600381106117c057fe5b60200201876001600381106117d157fe5b60200201886002600381106117e257fe5b60200201838152508381525083815250505050611946565b6000821115611945576119028460006003811061181357fe5b60200201518560016003811061182557fe5b60200201518660026003811061183757fe5b60200201518660016004811061184957fe5b60200201516002600188038161185b57fe5b046004811061186657fe5b602002015160006003811061187757fe5b60200201518760016004811061188957fe5b60200201516002600189038161189b57fe5b04600481106118a657fe5b60200201516001600381106118b757fe5b6020020151886001600481106118c957fe5b6020020151600260018a03816118db57fe5b04600481106118e657fe5b60200201516002600381106118f757fe5b60200201518e61203c565b8660006003811061190f57fe5b602002018760016003811061192057fe5b602002018860026003811061193157fe5b602002018381525083815250838152505050505b5b8b8d60026004811061195457fe5b6020020151019050805160001a91506008821115611abd57611a768460006003811061197c57fe5b60200201518560016003811061198e57fe5b6020020151866002600381106119a057fe5b6020020151866002600481106119b257fe5b6020020151600287600f03816119c457fe5b04600481106119cf57fe5b60200201516000600381106119e057fe5b60200201518c886002600481106119f357fe5b6020020151600289600f0381611a0557fe5b0460048110611a1057fe5b6020020151600160038110611a2157fe5b60200201518e0381611a2f57fe5b0688600260048110611a3d57fe5b6020020151600289600f0381611a4f57fe5b0460048110611a5a57fe5b6020020151600260038110611a6b57fe5b60200201518e61203c565b86600060038110611a8357fe5b6020020187600160038110611a9457fe5b6020020188600260038110611aa557fe5b60200201838152508381525083815250505050611c09565b6000821115611c0857611bc584600060038110611ad657fe5b602002015185600160038110611ae857fe5b602002015186600260038110611afa57fe5b602002015186600260048110611b0c57fe5b602002015160026001880381611b1e57fe5b0460048110611b2957fe5b6020020151600060038110611b3a57fe5b602002015187600260048110611b4c57fe5b602002015160026001890381611b5e57fe5b0460048110611b6957fe5b6020020151600160038110611b7a57fe5b602002015188600260048110611b8c57fe5b6020020151600260018a0381611b9e57fe5b0460048110611ba957fe5b6020020151600260038110611bba57fe5b60200201518e61203c565b86600060038110611bd257fe5b6020020187600160038110611be357fe5b6020020188600260038110611bf457fe5b602002018381525083815250838152505050505b5b8b8d600360048110611c1757fe5b6020020151019050805160001a91506008821115611d8057611d3984600060038110611c3f57fe5b602002015185600160038110611c5157fe5b602002015186600260038110611c6357fe5b602002015186600360048110611c7557fe5b6020020151600287600f0381611c8757fe5b0460048110611c9257fe5b6020020151600060038110611ca357fe5b60200201518c88600360048110611cb657fe5b6020020151600289600f0381611cc857fe5b0460048110611cd357fe5b6020020151600160038110611ce457fe5b60200201518e0381611cf257fe5b0688600360048110611d0057fe5b6020020151600289600f0381611d1257fe5b0460048110611d1d57fe5b6020020151600260038110611d2e57fe5b60200201518e61203c565b86600060038110611d4657fe5b6020020187600160038110611d5757fe5b6020020188600260038110611d6857fe5b60200201838152508381525083815250505050611ecc565b6000821115611ecb57611e8884600060038110611d9957fe5b602002015185600160038110611dab57fe5b602002015186600260038110611dbd57fe5b602002015186600360048110611dcf57fe5b602002015160026001880381611de157fe5b0460048110611dec57fe5b6020020151600060038110611dfd57fe5b602002015187600360048110611e0f57fe5b602002015160026001890381611e2157fe5b0460048110611e2c57fe5b6020020151600160038110611e3d57fe5b602002015188600360048110611e4f57fe5b6020020151600260018a0381611e6157fe5b0460048110611e6c57fe5b6020020151600260038110611e7d57fe5b60200201518e61203c565b86600060038110611e9557fe5b6020020187600160038110611ea657fe5b6020020188600260038110611eb757fe5b602002018381525083815250838152505050505b5b61132c565b83600060038110611ede57fe5b602002015184600160038110611ef057fe5b602002015185600260038110611f0257fe5b60200201519650965096505050505096509650969350505050565b600080600080861415611f3857878787925092509250612031565b60008480611f4257fe5b898a09905060008580611f5157fe5b898a09905060008680611f6057fe5b898a09905060008780611f6f57fe5b8880611f7757fe5b848e09600409905060008880611f8957fe5b8980611f9157fe5b8a80611f9957fe5b8586098c098a80611fa657fe5b876003090890508880611fb557fe5b8980611fbd57fe5b8384088a038a80611fca57fe5b8384090894508880611fd857fe5b8980611fe057fe5b8a80611fe857fe5b8687096008098a038a80611ff857fe5b8b8061200057fe5b888d0386088409089350888061201257fe5b898061201a57fe5b8c8e09600209925084848497509750975050505050505b955095509592505050565b6000806000808a1480156120505750600089145b1561206357868686925092509250612500565b6000871480156120735750600086145b1561208657898989925092509250612500565b61208e61353d565b848061209657fe5b898a09816000600481106120a657fe5b60200201818152505084806120b757fe5b816000600481106120c457fe5b60200201518a09816001600481106120d857fe5b60200201818152505084806120e957fe5b868709816002600481106120f957fe5b602002018181525050848061210a57fe5b8160026004811061211757fe5b602002015187098160036004811061212b57fe5b6020020181815250506040518060800160405280868061214757fe5b8360026004811061215457fe5b60200201518e098152602001868061216857fe5b8360036004811061217557fe5b60200201518d098152602001868061218957fe5b8360006004811061219657fe5b60200201518b09815260200186806121aa57fe5b836001600481106121b757fe5b60200201518a098152509050806002600481106121d057fe5b6020020151816000600481106121e257fe5b60200201511415806122165750806003600481106121fc57fe5b60200201518160016004811061220e57fe5b602002015114155b612288576040517f08c379a000000000000000000000000000000000000000000000000000000000815260040180806020018281038252601e8152602001807f557365206a6163446f75626c652066756e6374696f6e20696e7374656164000081525060200191505060405180910390fd5b61229061353d565b858061229857fe5b826000600481106122a557fe5b60200201518703836002600481106122b957fe5b602002015108816000600481106122cc57fe5b60200201818152505085806122dd57fe5b826001600481106122ea57fe5b60200201518703836003600481106122fe57fe5b6020020151088160016004811061231157fe5b602002018181525050858061232257fe5b8160006004811061232f57fe5b60200201518260006004811061234157fe5b6020020151098160026004811061235457fe5b602002018181525050858061236557fe5b8160006004811061237257fe5b60200201518260026004811061238457fe5b6020020151098160036004811061239757fe5b602002018181525050600086806123aa57fe5b826003600481106123b757fe5b6020020151880388806123c657fe5b846001600481106123d357fe5b6020020151856001600481106123e557fe5b60200201510908905086806123f657fe5b87806123fe57fe5b888061240657fe5b8460026004811061241357fe5b60200201518660006004811061242557fe5b6020020151096002098803820890506000878061243e57fe5b888061244657fe5b838a038a8061245157fe5b8660026004811061245e57fe5b60200201518860006004811061247057fe5b602002015109088460016004811061248457fe5b6020020151099050878061249457fe5b888061249c57fe5b846003600481106124a957fe5b6020020151866001600481106124bb57fe5b602002015109890382089050600088806124d157fe5b89806124d957fe5b8b8f09856000600481106124e957fe5b602002015109905082828297509750975050505050505b9750975097945050505050565b600080600080608086901c905060006fffffffffffffffffffffffffffffffff871690506000608087901c905060006fffffffffffffffffffffffffffffffff881690506000818402905060006fffffffffffffffffffffffffffffffff848602166fffffffffffffffffffffffffffffffff84880216608084901c0101905060006080858702901c6080858902901c868902608085901c01010190506fffffffffffffffffffffffffffffffff821691506fffffffffffffffffffffffffffffffff83169250808284995099509950505050505050509250925092565b60008060008386816125f957fe5b06905060005b60008186901c11156126185780806001019150506125ff565b8061010003905060808111612633578060800386901c61263b565b6080810386901b5b8188901b01915060006fffffffffffffffffffffffffffffffff8288901b16905060008060808489901b901c6fffffffffffffffffffffffffffffffff858a901b169150915060008083878161268d57fe5b04905083878161269957fe5b0691506000836fffffffffffffffffffffffffffffffff83160290506000608082901c85608085901c020190506fffffffffffffffffffffffffffffffff821691505b838111806126f4575083811480156126f357508682115b5b1561272c578280600190039350508487019650608087901c8601840193506fffffffffffffffffffffffffffffffff871696506126dc565b600088838f6080858903901b0103901c90508c8f8161274757fe5b048401819b509b5050505050505050505050935093915050565b600080821261277257819050612779565b8160000390505b919050565b612786613614565b61278e6135c5565b8660006004811061279b57fe5b602002015191506040518060600160405280876000600481106127ba57fe5b60200201518152602001876001600481106127d157fe5b602002015181526020016001815250826000600481106127ed57fe5b60200201819052506128478260006004811061280557fe5b602002015160006003811061281657fe5b60200201518360006004811061282857fe5b602002015160016003811061283957fe5b602002015160018887611f1d565b8360006003811061285457fe5b602002018460016003811061286557fe5b602002018560026003811061287657fe5b602002018381525083815250838152505050506129318160006003811061289957fe5b6020020151826001600381106128ab57fe5b6020020151836002600381106128bd57fe5b6020020151856000600481106128cf57fe5b60200201516000600381106128e057fe5b6020020151866000600481106128f257fe5b602002015160016003811061290357fe5b60200201518760006004811061291557fe5b602002015160026003811061292657fe5b60200201518961203c565b8460016004811061293e57fe5b602002015160006003811061294f57fe5b602002018560016004811061296057fe5b602002015160016003811061297157fe5b602002018660016004811061298257fe5b602002015160026003811061299357fe5b60200201838152508381525083815250505050612a4e816000600381106129b657fe5b6020020151826001600381106129c857fe5b6020020151836002600381106129da57fe5b6020020151856001600481106129ec57fe5b60200201516000600381106129fd57fe5b602002015186600160048110612a0f57fe5b6020020151600160038110612a2057fe5b602002015187600160048110612a3257fe5b6020020151600260038110612a4357fe5b60200201518961203c565b84600260048110612a5b57fe5b6020020151600060038110612a6c57fe5b6020020185600260048110612a7d57fe5b6020020151600160038110612a8e57fe5b6020020186600260048110612a9f57fe5b6020020151600260038110612ab057fe5b60200201838152508381525083815250505050612b6b81600060038110612ad357fe5b602002015182600160038110612ae557fe5b602002015183600260038110612af757fe5b602002015185600260048110612b0957fe5b6020020151600060038110612b1a57fe5b602002015186600260048110612b2c57fe5b6020020151600160038110612b3d57fe5b602002015187600260048110612b4f57fe5b6020020151600260038110612b6057fe5b60200201518961203c565b84600360048110612b7857fe5b6020020151600060038110612b8957fe5b6020020185600360048110612b9a57fe5b6020020151600160038110612bab57fe5b6020020186600360048110612bbc57fe5b6020020151600260038110612bcd57fe5b6020020183815250838152508381525050505060405180606001604052808480612bf357fe5b88600060048110612c0057fe5b60200201518709815260200187600160048110612c1957fe5b60200201518152602001600181525087600160048110612c3557fe5b6020020151600060048110612c4657fe5b602002018190525060405180606001604052808480612c6157fe5b84600160048110612c6e57fe5b6020020151600060038110612c7f57fe5b60200201518709815260200183600160048110612c9857fe5b6020020151600160038110612ca957fe5b6020020151815260200183600160048110612cc057fe5b6020020151600260038110612cd157fe5b602002015181525087600160048110612ce657fe5b6020020151600160048110612cf757fe5b602002018190525060405180606001604052808480612d1257fe5b84600260048110612d1f57fe5b6020020151600060038110612d3057fe5b60200201518709815260200183600260048110612d4957fe5b6020020151600160038110612d5a57fe5b6020020151815260200183600260048110612d7157fe5b6020020151600260038110612d8257fe5b602002015181525087600160048110612d9757fe5b6020020151600260048110612da857fe5b602002018190525060405180606001604052808480612dc357fe5b84600360048110612dd057fe5b6020020151600060038110612de157fe5b60200201518709815260200183600360048110612dfa57fe5b6020020151600160038110612e0b57fe5b6020020151815260200183600360048110612e2257fe5b6020020151600260038110612e3357fe5b602002015181525087600160048110612e4857fe5b6020020151600360048110612e5957fe5b602002018190525086600260048110612e6e57fe5b60200201519150604051806060016040528087600260048110612e8d57fe5b6020020151815260200187600360048110612ea457fe5b60200201518152602001600181525082600060048110612ec057fe5b6020020181905250612f1a82600060048110612ed857fe5b6020020151600060038110612ee957fe5b602002015183600060048110612efb57fe5b6020020151600160038110612f0c57fe5b602002015160018887611f1d565b83600060038110612f2757fe5b6020020184600160038110612f3857fe5b6020020185600260038110612f4957fe5b6020020183815250838152508381525050505061300481600060038110612f6c57fe5b602002015182600160038110612f7e57fe5b602002015183600260038110612f9057fe5b602002015185600060048110612fa257fe5b6020020151600060038110612fb357fe5b602002015186600060048110612fc557fe5b6020020151600160038110612fd657fe5b602002015187600060048110612fe857fe5b6020020151600260038110612ff957fe5b60200201518961203c565b8460016004811061301157fe5b602002015160006003811061302257fe5b602002018560016004811061303357fe5b602002015160016003811061304457fe5b602002018660016004811061305557fe5b602002015160026003811061306657fe5b602002018381525083815250838152505050506131218160006003811061308957fe5b60200201518260016003811061309b57fe5b6020020151836002600381106130ad57fe5b6020020151856001600481106130bf57fe5b60200201516000600381106130d057fe5b6020020151866001600481106130e257fe5b60200201516001600381106130f357fe5b60200201518760016004811061310557fe5b602002015160026003811061311657fe5b60200201518961203c565b8460026004811061312e57fe5b602002015160006003811061313f57fe5b602002018560026004811061315057fe5b602002015160016003811061316157fe5b602002018660026004811061317257fe5b602002015160026003811061318357fe5b6020020183815250838152508381525050505061323e816000600381106131a657fe5b6020020151826001600381106131b857fe5b6020020151836002600381106131ca57fe5b6020020151856002600481106131dc57fe5b60200201516000600381106131ed57fe5b6020020151866002600481106131ff57fe5b602002015160016003811061321057fe5b60200201518760026004811061322257fe5b602002015160026003811061323357fe5b60200201518961203c565b8460036004811061324b57fe5b602002015160006003811061325c57fe5b602002018560036004811061326d57fe5b602002015160016003811061327e57fe5b602002018660036004811061328f57fe5b60200201516002600381106132a057fe5b60200201838152508381525083815250505050604051806060016040528084806132c657fe5b886002600481106132d357fe5b602002015187098152602001876003600481106132ec57fe5b6020020151815260200160018152508760036004811061330857fe5b602002015160006004811061331957fe5b60200201819052506040518060600160405280848061333457fe5b8460016004811061334157fe5b602002015160006003811061335257fe5b6020020151870981526020018360016004811061336b57fe5b602002015160016003811061337c57fe5b602002015181526020018360016004811061339357fe5b60200201516002600381106133a457fe5b6020020151815250876003600481106133b957fe5b60200201516001600481106133ca57fe5b6020020181905250604051806060016040528084806133e557fe5b846002600481106133f257fe5b602002015160006003811061340357fe5b6020020151870981526020018360026004811061341c57fe5b602002015160016003811061342d57fe5b602002015181526020018360026004811061344457fe5b602002015160026003811061345557fe5b60200201518152508760036004811061346a57fe5b602002015160026004811061347b57fe5b60200201819052506040518060600160405280848061349657fe5b846003600481106134a357fe5b60200201516000600381106134b457fe5b602002015187098152602001836003600481106134cd57fe5b60200201516001600381106134de57fe5b60200201518152602001836003600481106134f557fe5b602002015160026003811061350657fe5b60200201518152508760036004811061351b57fe5b602002015160036004811061352c57fe5b602002018190525050505050505050565b6040518060800160405280600490602082028036833780820191505090505090565b6040518060400160405280600290602082028036833780820191505090505090565b6040518060400160405280600290602082028036833780820191505090505090565b6040518060800160405280600490602082028036833780820191505090505090565b6040518060600160405280600390602082028036833780820191505090505090565b60405180608001604052806004905b6135fe613614565b8152602001906001900390816135f65790505090565b60405180608001604052806004905b61362b6135c5565b815260200190600190039081613623579050509056fe496e76616c696420636f6d7072657373656420454320706f696e7420707265666978a2646970667358221220132f9f11b69c22454d7340a82a1cfa79b0a428d83828bafd339fd847ed7c5e5364736f6c634300060c0033",
  "immutableReferences": {},
  "source": "// SPDX-License-Identifier: MIT\n\npragma solidity 0.6.12;\n\nimport \"../contracts/EllipticCurve.sol\";\nimport \"../contracts/FastEcMul.sol\";\n\n\n/**\n * @title Test Helper for the EllipticCurve contract\n * @dev The aim of this contract is twofold:\n * 1. Raise the visibility modifier of contract functions for testing purposes\n * 2. Removal of the `pure` modifier to allow gas consumption analysis\n * @author Witnet Foundation\n */\ncontract EcGasHelper {\n\n  function _toAffine(\n    uint256 _x,\n    uint256 _y,\n    uint256 _z,\n    uint256 _pp)\n  external returns (uint256, uint256)\n  {\n    return EllipticCurve.toAffine(\n      _x,\n      _y,\n      _z,\n      _pp);\n  }\n\n  function _invMod(uint256 _x, uint256 _pp) external returns (uint256) {\n    return EllipticCurve.invMod(_x, _pp);\n  }\n\n  function _deriveY(\n    uint8 _prefix,\n    uint256 _x,\n    uint256 _aa,\n    uint256 _bb,\n    uint256 _pp)\n  external returns (uint256)\n  {\n    return EllipticCurve.deriveY(\n      _prefix,\n      _x,\n      _aa,\n      _bb,\n      _pp);\n  }\n\n  function _isOnCurve(\n    uint _x,\n    uint _y,\n    uint _aa,\n    uint _bb,\n    uint _pp)\n  external returns (bool)\n  {\n    return EllipticCurve.isOnCurve(\n      _x,\n      _y,\n      _aa,\n      _bb,\n      _pp);\n  }\n\n  function _ecInv(\n    uint256 _x,\n    uint256 _y,\n    uint256 _pp)\n  external returns (uint256, uint256)\n  {\n    return EllipticCurve.ecInv(_x, _y, _pp);\n  }\n\n  function _ecAdd(\n    uint256 _x1,\n    uint256 _y1,\n    uint256 _x2,\n    uint256 _y2,\n    uint256 _aa,\n    uint256 _pp)\n    external returns(uint256, uint256)\n  {\n    return EllipticCurve.ecAdd(\n      _x1,\n      _y1,\n      _x2,\n      _y2,\n      _aa,\n      _pp);\n  }\n\n  function _ecSub(\n    uint256 _x1,\n    uint256 _y1,\n    uint256 _x2,\n    uint256 _y2,\n    uint256 _aa,\n    uint256 _pp)\n  external returns(uint256, uint256)\n  {\n    return EllipticCurve.ecSub(\n      _x1,\n      _y1,\n      _x2,\n      _y2,\n      _aa,\n      _pp);\n  }\n\n  function _ecMul(\n    uint256 _k,\n    uint256 _x,\n    uint256 _y,\n    uint256 _aa,\n    uint256 _pp)\n  external returns(uint256, uint256)\n  {\n    return EllipticCurve.ecMul(\n      _k,\n      _x,\n      _y,\n      _aa,\n      _pp);\n  }\n\n  function _decomposeScalar (uint256 _k, uint256 _nn, uint256 _lambda) external returns (int256, int256) {\n    return FastEcMul.decomposeScalar(_k, _nn, _lambda);\n  }\n\n  function _ecSimMul(\n    int256[4] calldata _scalars,\n    uint256[4] calldata _points,\n    uint256 _aa,\n    uint256 _beta,\n    uint256 _pp)\n  external returns (uint256, uint256)\n  {\n    return FastEcMul.ecSimMul(\n      _scalars,\n      _points,\n      _aa,\n      _beta,\n      _pp);\n  }\n\n}",
  "sourcePath": "/home/elizabeth/atomic-swap/contracts/contracts/elliptic-curve-solidity/benchmark/EcGasHelper.sol",
  "compiler": {
    "name": "solc",
    "version": "0.6.12+commit.27d51765.Emscripten.clang"
  },
  "schemaVersion": "3.4.3",
  "updatedAt": "2021-10-22T10:40:12.118Z",
  "devdoc": {
    "author": "Witnet Foundation",
    "details": "The aim of this contract is twofold: 1. Raise the visibility modifier of contract functions for testing purposes 2. Removal of the `pure` modifier to allow gas consumption analysis",
    "kind": "dev",
    "methods": {},
    "title": "Test Helper for the EllipticCurve contract",
    "version": 1
  },
  "userdoc": {
    "kind": "user",
    "methods": {},
    "version": 1
  }
}