{
  "contractName": "Secp256k1",
  "abi": [
    {
      "inputs": [],
      "name": "AA",
      "outputs": [
        {
          "internalType": "uint256",
          "name": "",
          "type": "uint256"
        }
      ],
      "stateMutability": "view",
      "type": "function"
    },
    {
      "inputs": [],
      "name": "BB",
      "outputs": [
        {
          "internalType": "uint256",
          "name": "",
          "type": "uint256"
        }
      ],
      "stateMutability": "view",
      "type": "function"
    },
    {
      "inputs": [],
      "name": "GX",
      "outputs": [
        {
          "internalType": "uint256",
          "name": "",
          "type": "uint256"
        }
      ],
      "stateMutability": "view",
      "type": "function"
    },
    {
      "inputs": [],
      "name": "GY",
      "outputs": [
        {
          "internalType": "uint256",
          "name": "",
          "type": "uint256"
        }
      ],
      "stateMutability": "view",
      "type": "function"
    },
    {
      "inputs": [],
      "name": "PP",
      "outputs": [
        {
          "internalType": "uint256",
          "name": "",
          "type": "uint256"
        }
      ],
      "stateMutability": "view",
      "type": "function"
    },
    {
      "inputs": [
        {
          "internalType": "uint256",
          "name": "privKey",
          "type": "uint256"
        }
      ],
      "name": "derivePubKey",
      "outputs": [
        {
          "internalType": "uint256",
          "name": "",
          "type": "uint256"
        },
        {
          "internalType": "uint256",
          "name": "",
          "type": "uint256"
        }
      ],
      "stateMutability": "pure",
      "type": "function"
    }
  ],
  "bytecode": "0x608060405234801561001057600080fd5b50610aa5806100206000396000f3fe608060405234801561001057600080fd5b50600436106100625760003560e01c806303a507be146100675780635727dc5c146100855780637a308a4c146100a3578063997da8d4146100c1578063bc9e2bcf146100df578063eeeac01e14610128575b600080fd5b61006f610146565b6040518082815260200191505060405180910390f35b61008d61016a565b6040518082815260200191505060405180910390f35b6100ab61016f565b6040518082815260200191505060405180910390f35b6100c9610193565b6040518082815260200191505060405180910390f35b61010b600480360360208110156100f557600080fd5b8101908080359060200190929190505050610198565b604051808381526020018281526020019250505060405180910390f35b610130610212565b6040518082815260200191505060405180910390f35b7f79be667ef9dcbbac55a06295ce870b07029bfcdb2dce28d959f2815b16f8179881565b600781565b7f483ada7726a3c4655da4fbfc0e1108a8fd17b448a68554199c47d08ffb10d4b881565b600081565b600080610209837f79be667ef9dcbbac55a06295ce870b07029bfcdb2dce28d959f2815b16f817987f483ada7726a3c4655da4fbfc0e1108a8fd17b448a68554199c47d08ffb10d4b860007ffffffffffffffffffffffffffffffffffffffffffffffffffffffffefffffc2f610236565b91509150915091565b7ffffffffffffffffffffffffffffffffffffffffffffffffffffffffefffffc2f81565b600080600080600061024d8a8a8a60018b8b610270565b92509250925061025f8383838961030e565b945094505050509550959350505050565b60008060008089141561028b57878787925092509250610302565b60008990506000806000600190505b600084146102f457600060018516146102c9576102bc8383838f8f8f8e610369565b8093508194508295505050505b600284816102d357fe5b0493506102e38c8c8c8c8c61083a565b809c50819d50829e5050505061029a565b828282965096509650505050505b96509650969350505050565b600080600061031d8585610959565b90506000848061032957fe5b82830990506000858061033857fe5b828a0990506000868061034757fe5b878061034f57fe5b8486098a0990508181955095505050505094509492505050565b6000806000808a14801561037d5750600089145b156103905786868692509250925061082d565b6000871480156103a05750600086145b156103b35789898992509250925061082d565b6103bb610a4d565b84806103c357fe5b898a09816000600481106103d357fe5b60200201818152505084806103e457fe5b816000600481106103f157fe5b60200201518a098160016004811061040557fe5b602002018181525050848061041657fe5b8687098160026004811061042657fe5b602002018181525050848061043757fe5b8160026004811061044457fe5b602002015187098160036004811061045857fe5b6020020181815250506040518060800160405280868061047457fe5b8360026004811061048157fe5b60200201518e098152602001868061049557fe5b836003600481106104a257fe5b60200201518d09815260200186806104b657fe5b836000600481106104c357fe5b60200201518b09815260200186806104d757fe5b836001600481106104e457fe5b60200201518a098152509050806002600481106104fd57fe5b60200201518160006004811061050f57fe5b602002015114158061054357508060036004811061052957fe5b60200201518160016004811061053b57fe5b602002015114155b6105b5576040517f08c379a000000000000000000000000000000000000000000000000000000000815260040180806020018281038252601e8152602001807f557365206a6163446f75626c652066756e6374696f6e20696e7374656164000081525060200191505060405180910390fd5b6105bd610a4d565b85806105c557fe5b826000600481106105d257fe5b60200201518703836002600481106105e657fe5b602002015108816000600481106105f957fe5b602002018181525050858061060a57fe5b8260016004811061061757fe5b602002015187038360036004811061062b57fe5b6020020151088160016004811061063e57fe5b602002018181525050858061064f57fe5b8160006004811061065c57fe5b60200201518260006004811061066e57fe5b6020020151098160026004811061068157fe5b602002018181525050858061069257fe5b8160006004811061069f57fe5b6020020151826002600481106106b157fe5b602002015109816003600481106106c457fe5b602002018181525050600086806106d757fe5b826003600481106106e457fe5b6020020151880388806106f357fe5b8460016004811061070057fe5b60200201518560016004811061071257fe5b602002015109089050868061072357fe5b878061072b57fe5b888061073357fe5b8460026004811061074057fe5b60200201518660006004811061075257fe5b6020020151096002098803820890506000878061076b57fe5b888061077357fe5b838a038a8061077e57fe5b8660026004811061078b57fe5b60200201518860006004811061079d57fe5b60200201510908846001600481106107b157fe5b602002015109905087806107c157fe5b88806107c957fe5b846003600481106107d657fe5b6020020151866001600481106107e857fe5b602002015109890382089050600088806107fe57fe5b898061080657fe5b8b8f098560006004811061081657fe5b602002015109905082828297509750975050505050505b9750975097945050505050565b6000806000808614156108555787878792509250925061094e565b6000848061085f57fe5b898a0990506000858061086e57fe5b898a0990506000868061087d57fe5b898a0990506000878061088c57fe5b888061089457fe5b848e096004099050600088806108a657fe5b89806108ae57fe5b8a806108b657fe5b8586098c098a806108c357fe5b8760030908905088806108d257fe5b89806108da57fe5b8384088a038a806108e757fe5b83840908945088806108f557fe5b89806108fd57fe5b8a8061090557fe5b8687096008098a038a8061091557fe5b8b8061091d57fe5b888d0386088409089350888061092f57fe5b898061093757fe5b8c8e09600209925084848497509750975050505050505b955095509592505050565b600080831415801561096b5750818314155b8015610978575060008214155b6109ea576040517f08c379a000000000000000000000000000000000000000000000000000000000815260040180806020018281038252600e8152602001807f496e76616c6964206e756d62657200000000000000000000000000000000000081525060200191505060405180910390fd5b60008060019050600084905060005b60008714610a4057868281610a0a57fe5b049050828680610a1657fe5b8780610a1e57fe5b85840988038608809450819550505086878202830380985081935050506109f9565b8394505050505092915050565b604051806080016040528060049060208202803683378082019150509050509056fea26469706673582212209858ef6d9c6f8ed5a392a32879031f4b594e90147d549f5a4f171956fd04abbf64736f6c634300060c0033",
  "immutableReferences": {},
  "source": "// SPDX-License-Identifier: MIT\n\npragma solidity 0.6.12;\n\nimport \"../contracts/EllipticCurve.sol\";\n\n\n/**\n * @title Secp256k1 Elliptic Curve\n * @notice Example of particularization of Elliptic Curve for secp256k1 curve\n * @author Witnet Foundation\n */\ncontract Secp256k1 {\n\n  uint256 public constant GX = 0x79BE667EF9DCBBAC55A06295CE870B07029BFCDB2DCE28D959F2815B16F81798;\n  uint256 public constant GY = 0x483ADA7726A3C4655DA4FBFC0E1108A8FD17B448A68554199C47D08FFB10D4B8;\n  uint256 public constant AA = 0;\n  uint256 public constant BB = 7;\n  uint256 public constant PP = 0xFFFFFFFFFFFFFFFFFFFFFFFFFFFFFFFFFFFFFFFFFFFFFFFFFFFFFFFEFFFFFC2F;\n\n  /// @notice Public Key derivation from private key\n  /// Warning: this is just an example. Do not expose your private key.\n  /// @param privKey The private key\n  /// @return (qx, qy) The Public Key\n  function derivePubKey(uint256 privKey) external pure returns (uint256, uint256) {\n    return EllipticCurve.ecMul(\n      privKey,\n      GX,\n      GY,\n      AA,\n      PP\n    );\n  }\n}",
  "sourcePath": "/home/elizabeth/atomic-swap/contracts/contracts/elliptic-curve-solidity/examples/Secp256k1.sol",
  "compiler": {
    "name": "solc",
    "version": "0.6.12+commit.27d51765.Emscripten.clang"
  },
  "schemaVersion": "3.4.3",
  "updatedAt": "2021-10-22T10:40:12.164Z",
  "devdoc": {
    "author": "Witnet Foundation",
    "kind": "dev",
    "methods": {
      "derivePubKey(uint256)": {
        "params": {
          "privKey": "The private key"
        },
        "returns": {
          "_0": "(qx, qy) The Public Key"
        }
      }
    },
    "title": "Secp256k1 Elliptic Curve",
    "version": 1
  },
  "userdoc": {
    "kind": "user",
    "methods": {
      "derivePubKey(uint256)": {
        "notice": "Public Key derivation from private key Warning: this is just an example. Do not expose your private key."
      }
    },
    "notice": "Example of particularization of Elliptic Curve for secp256k1 curve",
    "version": 1
  }
}