{
  "contractName": "Secp256k1GasHelper",
  "abi": [
    {
      "inputs": [],
      "name": "AA",
      "outputs": [
        {
          "internalType": "uint256",
          "name": "",
          "type": "uint256"
        }
      ],
      "stateMutability": "view",
      "type": "function"
    },
    {
      "inputs": [],
      "name": "BB",
      "outputs": [
        {
          "internalType": "uint256",
          "name": "",
          "type": "uint256"
        }
      ],
      "stateMutability": "view",
      "type": "function"
    },
    {
      "inputs": [],
      "name": "GX",
      "outputs": [
        {
          "internalType": "uint256",
          "name": "",
          "type": "uint256"
        }
      ],
      "stateMutability": "view",
      "type": "function"
    },
    {
      "inputs": [],
      "name": "GY",
      "outputs": [
        {
          "internalType": "uint256",
          "name": "",
          "type": "uint256"
        }
      ],
      "stateMutability": "view",
      "type": "function"
    },
    {
      "inputs": [],
      "name": "PP",
      "outputs": [
        {
          "internalType": "uint256",
          "name": "",
          "type": "uint256"
        }
      ],
      "stateMutability": "view",
      "type": "function"
    },
    {
      "inputs": [
        {
          "internalType": "uint256",
          "name": "privKey",
          "type": "uint256"
        }
      ],
      "name": "derivePubKey",
      "outputs": [
        {
          "internalType": "uint256",
          "name": "qx",
          "type": "uint256"
        },
        {
          "internalType": "uint256",
          "name": "qy",
          "type": "uint256"
        }
      ],
      "stateMutability": "nonpayable",
      "type": "function"
    }
  ],
  "bytecode": "0x608060405234801561001057600080fd5b50610aa9806100206000396000f3fe608060405234801561001057600080fd5b50600436106100625760003560e01c806303a507be146100675780635727dc5c146100855780637a308a4c146100a3578063997da8d4146100c1578063bc9e2bcf146100df578063eeeac01e14610128575b600080fd5b61006f610146565b6040518082815260200191505060405180910390f35b61008d61016a565b6040518082815260200191505060405180910390f35b6100ab61016f565b6040518082815260200191505060405180910390f35b6100c9610193565b6040518082815260200191505060405180910390f35b61010b600480360360208110156100f557600080fd5b8101908080359060200190929190505050610198565b604051808381526020018281526020019250505060405180910390f35b610130610216565b6040518082815260200191505060405180910390f35b7f79be667ef9dcbbac55a06295ce870b07029bfcdb2dce28d959f2815b16f8179881565b600781565b7f483ada7726a3c4655da4fbfc0e1108a8fd17b448a68554199c47d08ffb10d4b881565b600081565b600080610209837f79be667ef9dcbbac55a06295ce870b07029bfcdb2dce28d959f2815b16f817987f483ada7726a3c4655da4fbfc0e1108a8fd17b448a68554199c47d08ffb10d4b860007ffffffffffffffffffffffffffffffffffffffffffffffffffffffffefffffc2f61023a565b8092508193505050915091565b7ffffffffffffffffffffffffffffffffffffffffffffffffffffffffefffffc2f81565b60008060008060006102518a8a8a60018b8b610274565b92509250925061026383838389610312565b945094505050509550959350505050565b60008060008089141561028f57878787925092509250610306565b60008990506000806000600190505b600084146102f857600060018516146102cd576102c08383838f8f8f8e61036d565b8093508194508295505050505b600284816102d757fe5b0493506102e78c8c8c8c8c61083e565b809c50819d50829e5050505061029e565b828282965096509650505050505b96509650969350505050565b6000806000610321858561095d565b90506000848061032d57fe5b82830990506000858061033c57fe5b828a0990506000868061034b57fe5b878061035357fe5b8486098a0990508181955095505050505094509492505050565b6000806000808a1480156103815750600089145b1561039457868686925092509250610831565b6000871480156103a45750600086145b156103b757898989925092509250610831565b6103bf610a51565b84806103c757fe5b898a09816000600481106103d757fe5b60200201818152505084806103e857fe5b816000600481106103f557fe5b60200201518a098160016004811061040957fe5b602002018181525050848061041a57fe5b8687098160026004811061042a57fe5b602002018181525050848061043b57fe5b8160026004811061044857fe5b602002015187098160036004811061045c57fe5b6020020181815250506040518060800160405280868061047857fe5b8360026004811061048557fe5b60200201518e098152602001868061049957fe5b836003600481106104a657fe5b60200201518d09815260200186806104ba57fe5b836000600481106104c757fe5b60200201518b09815260200186806104db57fe5b836001600481106104e857fe5b60200201518a0981525090508060026004811061050157fe5b60200201518160006004811061051357fe5b602002015114158061054757508060036004811061052d57fe5b60200201518160016004811061053f57fe5b602002015114155b6105b9576040517f08c379a000000000000000000000000000000000000000000000000000000000815260040180806020018281038252601e8152602001807f557365206a6163446f75626c652066756e6374696f6e20696e7374656164000081525060200191505060405180910390fd5b6105c1610a51565b85806105c957fe5b826000600481106105d657fe5b60200201518703836002600481106105ea57fe5b602002015108816000600481106105fd57fe5b602002018181525050858061060e57fe5b8260016004811061061b57fe5b602002015187038360036004811061062f57fe5b6020020151088160016004811061064257fe5b602002018181525050858061065357fe5b8160006004811061066057fe5b60200201518260006004811061067257fe5b6020020151098160026004811061068557fe5b602002018181525050858061069657fe5b816000600481106106a357fe5b6020020151826002600481106106b557fe5b602002015109816003600481106106c857fe5b602002018181525050600086806106db57fe5b826003600481106106e857fe5b6020020151880388806106f757fe5b8460016004811061070457fe5b60200201518560016004811061071657fe5b602002015109089050868061072757fe5b878061072f57fe5b888061073757fe5b8460026004811061074457fe5b60200201518660006004811061075657fe5b6020020151096002098803820890506000878061076f57fe5b888061077757fe5b838a038a8061078257fe5b8660026004811061078f57fe5b6020020151886000600481106107a157fe5b60200201510908846001600481106107b557fe5b602002015109905087806107c557fe5b88806107cd57fe5b846003600481106107da57fe5b6020020151866001600481106107ec57fe5b6020020151098903820890506000888061080257fe5b898061080a57fe5b8b8f098560006004811061081a57fe5b602002015109905082828297509750975050505050505b9750975097945050505050565b60008060008086141561085957878787925092509250610952565b6000848061086357fe5b898a0990506000858061087257fe5b898a0990506000868061088157fe5b898a0990506000878061089057fe5b888061089857fe5b848e096004099050600088806108aa57fe5b89806108b257fe5b8a806108ba57fe5b8586098c098a806108c757fe5b8760030908905088806108d657fe5b89806108de57fe5b8384088a038a806108eb57fe5b83840908945088806108f957fe5b898061090157fe5b8a8061090957fe5b8687096008098a038a8061091957fe5b8b8061092157fe5b888d0386088409089350888061093357fe5b898061093b57fe5b8c8e09600209925084848497509750975050505050505b955095509592505050565b600080831415801561096f5750818314155b801561097c575060008214155b6109ee576040517f08c379a000000000000000000000000000000000000000000000000000000000815260040180806020018281038252600e8152602001807f496e76616c6964206e756d62657200000000000000000000000000000000000081525060200191505060405180910390fd5b60008060019050600084905060005b60008714610a4457868281610a0e57fe5b049050828680610a1a57fe5b8780610a2257fe5b85840988038608809450819550505086878202830380985081935050506109fd565b8394505050505092915050565b604051806080016040528060049060208202803683378082019150509050509056fea2646970667358221220745b5f3168b30ac5eae7dcf9cbd005c1dec7bba4c68ce76340be9f13c21a87f864736f6c634300060c0033",
  "immutableReferences": {},
  "source": "// SPDX-License-Identifier: MIT\n\npragma solidity 0.6.12;\n\nimport \"../contracts/EllipticCurve.sol\";\n\n\n/**\n * @title Secp256k1 Elliptic Curve Gas Helper\n * @notice Example of particularization of Elliptic Curve for secp256k1 curve with a non-pure function to analyze gas cost\n * @author Witnet Foundation\n */\ncontract Secp256k1GasHelper {\n\n  uint256 public constant GX = 0x79BE667EF9DCBBAC55A06295CE870B07029BFCDB2DCE28D959F2815B16F81798;\n  uint256 public constant GY = 0x483ADA7726A3C4655DA4FBFC0E1108A8FD17B448A68554199C47D08FFB10D4B8;\n  uint256 public constant AA = 0;\n  uint256 public constant BB = 7;\n  uint256 public constant PP = 0xFFFFFFFFFFFFFFFFFFFFFFFFFFFFFFFFFFFFFFFFFFFFFFFFFFFFFFFEFFFFFC2F;\n\n  function derivePubKey(uint256 privKey) external returns(uint256 qx, uint256 qy) {\n    (qx, qy) = EllipticCurve.ecMul(\n      privKey,\n      GX,\n      GY,\n      AA,\n      PP\n    );\n  }\n}",
  "sourcePath": "/home/elizabeth/atomic-swap/contracts/contracts/elliptic-curve-solidity/benchmark/Secp256k1GasHelper.sol",
  "compiler": {
    "name": "solc",
    "version": "0.6.12+commit.27d51765.Emscripten.clang"
  },
  "schemaVersion": "3.4.3",
  "updatedAt": "2021-10-22T10:40:12.120Z",
  "devdoc": {
    "author": "Witnet Foundation",
    "kind": "dev",
    "methods": {},
    "title": "Secp256k1 Elliptic Curve Gas Helper",
    "version": 1
  },
  "userdoc": {
    "kind": "user",
    "methods": {},
    "notice": "Example of particularization of Elliptic Curve for secp256k1 curve with a non-pure function to analyze gas cost",
    "version": 1
  }
}