{
  "contractName": "Swap",
  "abi": [
    {
      "inputs": [
        {
          "internalType": "bytes32",
          "name": "_hashRedeem",
          "type": "bytes32"
        },
        {
          "internalType": "bytes32",
          "name": "_hashOwnerSecret",
          "type": "bytes32"
        },
        {
          "internalType": "bytes32",
          "name": "_expectedPublicKey",
          "type": "bytes32"
        },
        {
          "internalType": "bytes32",
          "name": "_hashRefund",
          "type": "bytes32"
        }
      ],
      "stateMutability": "payable",
      "type": "constructor"
    },
    {
      "inputs": [],
      "name": "expectedPublicKey",
      "outputs": [
        {
          "internalType": "bytes32",
          "name": "",
          "type": "bytes32"
        }
      ],
      "stateMutability": "view",
      "type": "function"
    },
    {
      "inputs": [],
      "name": "hashOwnerSecret",
      "outputs": [
        {
          "internalType": "bytes32",
          "name": "",
          "type": "bytes32"
        }
      ],
      "stateMutability": "view",
      "type": "function"
    },
    {
      "inputs": [],
      "name": "hashRedeem",
      "outputs": [
        {
          "internalType": "bytes32",
          "name": "",
          "type": "bytes32"
        }
      ],
      "stateMutability": "view",
      "type": "function"
    },
    {
      "inputs": [],
      "name": "hashRefund",
      "outputs": [
        {
          "internalType": "bytes32",
          "name": "",
          "type": "bytes32"
        }
      ],
      "stateMutability": "view",
      "type": "function"
    },
    {
      "inputs": [
        {
          "internalType": "uint256",
          "name": "_sOther",
          "type": "uint256"
        },
        {
          "internalType": "uint256",
          "name": "_sOwner",
          "type": "uint256"
        }
      ],
      "name": "redeem",
      "outputs": [],
      "stateMutability": "nonpayable",
      "type": "function"
    },
    {
      "inputs": [
        {
          "internalType": "uint256",
          "name": "_s",
          "type": "uint256"
        }
      ],
      "name": "refund",
      "outputs": [],
      "stateMutability": "nonpayable",
      "type": "function"
    }
  ],
  "bytecode": "0x60806040526040516110083803806110088339818101604052608081101561002657600080fd5b810190808051906020019092919080519060200190929190805190602001909291908051906020019092919050505033600660006101000a81548173ffffffffffffffffffffffffffffffffffffffff021916908373ffffffffffffffffffffffffffffffffffffffff160217905550836001819055508260028190555081600381905550806004819055506201518042016005819055506040516100ca9061012f565b604051809103906000f0801580156100e6573d6000803e3d6000fd5b506000806101000a81548173ffffffffffffffffffffffffffffffffffffffff021916908373ffffffffffffffffffffffffffffffffffffffff1602179055505050505061013c565b610ac58061054383390190565b6103f88061014b6000396000f3fe608060405234801561001057600080fd5b50600436106100625760003560e01c8063278ecde1146100675780635fccd7c6146100955780637cbc2373146100b35780638475b983146100eb578063eb7fd86514610109578063f911f90814610127575b600080fd5b6100936004803603602081101561007d57600080fd5b8101908080359060200190929190505050610145565b005b61009d6101eb565b6040518082815260200191505060405180910390f35b6100e9600480360360408110156100c957600080fd5b8101908080359060200190929190803590602001909291905050506101f1565b005b6100f36103b0565b6040518082815260200191505060405180910390f35b6101116103b6565b6040518082815260200191505060405180910390f35b61012f6103bc565b6040518082815260200191505060405180910390f35b60008160405160200180828152602001915050604051602081830303815290604052805190602001209050600454811461017e57600080fd5b600660009054906101000a900473ffffffffffffffffffffffffffffffffffffffff1673ffffffffffffffffffffffffffffffffffffffff166108fc479081150290604051600060405180830381858888f193505050501580156101e6573d6000803e3d6000fd5b505050565b60025481565b60008260405160200180828152602001915050604051602081830303815290604052805190602001209050600154811461022a57600080fd5b60008260405160200180828152602001915050604051602081830303815290604052805190602001209050600254811461026357600080fd5b60008060008054906101000a900473ffffffffffffffffffffffffffffffffffffffff1673ffffffffffffffffffffffffffffffffffffffff1663bc9e2bcf876040518263ffffffff1660e01b815260040180828152602001915050604080518083038186803b1580156102d657600080fd5b505afa1580156102ea573d6000803e3d6000fd5b505050506040513d604081101561030057600080fd5b81019080805190602001909291908051906020019092919050505091509150600082826040516020018083815260200182815260200192505050604051602081830303815290604052805190602001209050600354811461036057600080fd5b3373ffffffffffffffffffffffffffffffffffffffff166108fc479081150290604051600060405180830381858888f193505050501580156103a6573d6000803e3d6000fd5b5050505050505050565b60045481565b60035481565b6001548156fea2646970667358221220b92240524d0c668668d77ea3af957bb6d9646ce23d499ee77bf922902bbd292b64736f6c634300060c0033608060405234801561001057600080fd5b50610aa5806100206000396000f3fe608060405234801561001057600080fd5b50600436106100625760003560e01c806303a507be146100675780635727dc5c146100855780637a308a4c146100a3578063997da8d4146100c1578063bc9e2bcf146100df578063eeeac01e14610128575b600080fd5b61006f610146565b6040518082815260200191505060405180910390f35b61008d61016a565b6040518082815260200191505060405180910390f35b6100ab61016f565b6040518082815260200191505060405180910390f35b6100c9610193565b6040518082815260200191505060405180910390f35b61010b600480360360208110156100f557600080fd5b8101908080359060200190929190505050610198565b604051808381526020018281526020019250505060405180910390f35b610130610212565b6040518082815260200191505060405180910390f35b7f79be667ef9dcbbac55a06295ce870b07029bfcdb2dce28d959f2815b16f8179881565b600781565b7f483ada7726a3c4655da4fbfc0e1108a8fd17b448a68554199c47d08ffb10d4b881565b600081565b600080610209837f79be667ef9dcbbac55a06295ce870b07029bfcdb2dce28d959f2815b16f817987f483ada7726a3c4655da4fbfc0e1108a8fd17b448a68554199c47d08ffb10d4b860007ffffffffffffffffffffffffffffffffffffffffffffffffffffffffefffffc2f610236565b91509150915091565b7ffffffffffffffffffffffffffffffffffffffffffffffffffffffffefffffc2f81565b600080600080600061024d8a8a8a60018b8b610270565b92509250925061025f8383838961030e565b945094505050509550959350505050565b60008060008089141561028b57878787925092509250610302565b60008990506000806000600190505b600084146102f457600060018516146102c9576102bc8383838f8f8f8e610369565b8093508194508295505050505b600284816102d357fe5b0493506102e38c8c8c8c8c61083a565b809c50819d50829e5050505061029a565b828282965096509650505050505b96509650969350505050565b600080600061031d8585610959565b90506000848061032957fe5b82830990506000858061033857fe5b828a0990506000868061034757fe5b878061034f57fe5b8486098a0990508181955095505050505094509492505050565b6000806000808a14801561037d5750600089145b156103905786868692509250925061082d565b6000871480156103a05750600086145b156103b35789898992509250925061082d565b6103bb610a4d565b84806103c357fe5b898a09816000600481106103d357fe5b60200201818152505084806103e457fe5b816000600481106103f157fe5b60200201518a098160016004811061040557fe5b602002018181525050848061041657fe5b8687098160026004811061042657fe5b602002018181525050848061043757fe5b8160026004811061044457fe5b602002015187098160036004811061045857fe5b6020020181815250506040518060800160405280868061047457fe5b8360026004811061048157fe5b60200201518e098152602001868061049557fe5b836003600481106104a257fe5b60200201518d09815260200186806104b657fe5b836000600481106104c357fe5b60200201518b09815260200186806104d757fe5b836001600481106104e457fe5b60200201518a098152509050806002600481106104fd57fe5b60200201518160006004811061050f57fe5b602002015114158061054357508060036004811061052957fe5b60200201518160016004811061053b57fe5b602002015114155b6105b5576040517f08c379a000000000000000000000000000000000000000000000000000000000815260040180806020018281038252601e8152602001807f557365206a6163446f75626c652066756e6374696f6e20696e7374656164000081525060200191505060405180910390fd5b6105bd610a4d565b85806105c557fe5b826000600481106105d257fe5b60200201518703836002600481106105e657fe5b602002015108816000600481106105f957fe5b602002018181525050858061060a57fe5b8260016004811061061757fe5b602002015187038360036004811061062b57fe5b6020020151088160016004811061063e57fe5b602002018181525050858061064f57fe5b8160006004811061065c57fe5b60200201518260006004811061066e57fe5b6020020151098160026004811061068157fe5b602002018181525050858061069257fe5b8160006004811061069f57fe5b6020020151826002600481106106b157fe5b602002015109816003600481106106c457fe5b602002018181525050600086806106d757fe5b826003600481106106e457fe5b6020020151880388806106f357fe5b8460016004811061070057fe5b60200201518560016004811061071257fe5b602002015109089050868061072357fe5b878061072b57fe5b888061073357fe5b8460026004811061074057fe5b60200201518660006004811061075257fe5b6020020151096002098803820890506000878061076b57fe5b888061077357fe5b838a038a8061077e57fe5b8660026004811061078b57fe5b60200201518860006004811061079d57fe5b60200201510908846001600481106107b157fe5b602002015109905087806107c157fe5b88806107c957fe5b846003600481106107d657fe5b6020020151866001600481106107e857fe5b602002015109890382089050600088806107fe57fe5b898061080657fe5b8b8f098560006004811061081657fe5b602002015109905082828297509750975050505050505b9750975097945050505050565b6000806000808614156108555787878792509250925061094e565b6000848061085f57fe5b898a0990506000858061086e57fe5b898a0990506000868061087d57fe5b898a0990506000878061088c57fe5b888061089457fe5b848e096004099050600088806108a657fe5b89806108ae57fe5b8a806108b657fe5b8586098c098a806108c357fe5b8760030908905088806108d257fe5b89806108da57fe5b8384088a038a806108e757fe5b83840908945088806108f557fe5b89806108fd57fe5b8a8061090557fe5b8687096008098a038a8061091557fe5b8b8061091d57fe5b888d0386088409089350888061092f57fe5b898061093757fe5b8c8e09600209925084848497509750975050505050505b955095509592505050565b600080831415801561096b5750818314155b8015610978575060008214155b6109ea576040517f08c379a000000000000000000000000000000000000000000000000000000000815260040180806020018281038252600e8152602001807f496e76616c6964206e756d62657200000000000000000000000000000000000081525060200191505060405180910390fd5b60008060019050600084905060005b60008714610a4057868281610a0a57fe5b049050828680610a1657fe5b8780610a1e57fe5b85840988038608809450819550505086878202830380985081935050506109f9565b8394505050505092915050565b604051806080016040528060049060208202803683378082019150509050509056fea26469706673582212209858ef6d9c6f8ed5a392a32879031f4b594e90147d549f5a4f171956fd04abbf64736f6c634300060c0033",
  "immutableReferences": {},
  "source": "pragma solidity 0.6.12;\n\nimport \"./elliptic-curve-solidity/examples/Secp256k1.sol\";\n\ncontract Swap {\n\tSecp256k1 secp256k1;\n\n\t// the hash where the pre-image must be disclosed to redeem the eth\n\t// in this contract.\n\t// it is the keccak256 hash of the redeeming party's secret (s_b), which when disclosed\n\t// allows the contract creator to redeem funds on another chain.\n\tbytes32 public hashRedeem;\n\n\t// the hash where the pre-image must also be disclosed to redeem the eth in this\n\t// contract. it is the keccak256 hash of a secret known initially by the owner,\n\t// which is disclosed to the other party when the owner sees the funds locked\n\t// on the other chain.\n\t// this prevents the case where the owner locks their funds in this contract, \n\t// and the other party doesn't lock theirs, but still redeems the funds here.\n\tbytes32 public hashOwnerSecret;\n\n\t// the hash of the expected public key for which the secret s_b corresponds\n\t// this public key lies on the secp256k1 curve\n\tbytes32 public expectedPublicKey;\n\n\t// the hash where the pre-image must be disclosed by the contract owner after time\n\t// t to refund the eth in this contract.\n\t// it is the keccak256 hash of a contract owner's secret, which when disclosed \n\t// allows the other party to refund their coins on the other chain.\n\tbytes32 public hashRefund;\n\n\t// time after which a refund is allowed\n\tuint256 timeout;\n\n\t// contract creator\n\taddress payable owner;\n\n\tconstructor(\n\t\tbytes32 _hashRedeem,\n\t\tbytes32 _hashOwnerSecret, \n\t\tbytes32 _expectedPublicKey, \n\t\tbytes32 _hashRefund\n\t) public payable {\n\t\towner = msg.sender;\n\t\thashRedeem = _hashRedeem;\n\t\thashOwnerSecret = _hashOwnerSecret;\n\t\texpectedPublicKey = _expectedPublicKey;\n\t\thashRefund = _hashRefund;\n\t\ttimeout = now + 1 days; // TODO: make configurable\n\t\tsecp256k1 = new Secp256k1();\n\t}\n\n\tfunction redeem(\n\t\tuint256 _sOther,\n\t\tuint256 _sOwner\n\t) public {\n\t\t// confirm that provided secret `_sOther` is pre-image of `hashRedeem`\n\t\tbytes32 h0 = keccak256(abi.encode(_sOther));\n\t\trequire(h0 == hashRedeem);\n\n\t\t// confirm that provided secret `_sOwner` is pre-image of `hashOwnerSecret`\n\t\tbytes32 h1 = keccak256(abi.encode(_sOwner));\n\t\trequire(h1 == hashOwnerSecret);\n\n\t\t// confirm that secret corresponds to provided public key\n\t\t(uint256 px, uint256 py) = secp256k1.derivePubKey(_sOther);\n\t\tbytes32 ph = keccak256(abi.encode(px, py));\n\t\trequire(ph == expectedPublicKey);\n\n\t\t// send eth to caller\n\t\tmsg.sender.transfer(address(this).balance);\n\t}\n\n\tfunction refund(\n\t\tuint256 _s\n\t) public {\n\t\t// confirm that provided secret is pre-image of `hashRefund`\n\t\tbytes32 h = keccak256(abi.encode(_s));\n\t\trequire(h == hashRefund);\n\n\t\t// send eth back to owner\n\t\towner.transfer(address(this).balance);\n\t}\n}",
  "sourcePath": "/home/elizabeth/atomic-swap/contracts/contracts/Swap.sol",
  "compiler": {
    "name": "solc",
    "version": "0.6.12+commit.27d51765.Emscripten.clang"
  },
  "schemaVersion": "3.4.3",
  "updatedAt": "2021-10-22T11:38:59.669Z",
  "devdoc": {
    "kind": "dev",
    "methods": {},
    "version": 1
  },
  "userdoc": {
    "kind": "user",
    "methods": {},
    "version": 1
  }
}