{
  "contractName": "TestEllipticCurve",
  "abi": [
    {
      "inputs": [
        {
          "internalType": "uint256",
          "name": "_x",
          "type": "uint256"
        },
        {
          "internalType": "uint256",
          "name": "_pp",
          "type": "uint256"
        }
      ],
      "name": "invMod",
      "outputs": [
        {
          "internalType": "uint256",
          "name": "",
          "type": "uint256"
        }
      ],
      "stateMutability": "pure",
      "type": "function"
    },
    {
      "inputs": [
        {
          "internalType": "uint256",
          "name": "_base",
          "type": "uint256"
        },
        {
          "internalType": "uint256",
          "name": "_exp",
          "type": "uint256"
        },
        {
          "internalType": "uint256",
          "name": "_pp",
          "type": "uint256"
        }
      ],
      "name": "expMod",
      "outputs": [
        {
          "internalType": "uint256",
          "name": "",
          "type": "uint256"
        }
      ],
      "stateMutability": "pure",
      "type": "function"
    },
    {
      "inputs": [
        {
          "internalType": "uint256",
          "name": "_x",
          "type": "uint256"
        },
        {
          "internalType": "uint256",
          "name": "_y",
          "type": "uint256"
        },
        {
          "internalType": "uint256",
          "name": "_z",
          "type": "uint256"
        },
        {
          "internalType": "uint256",
          "name": "_pp",
          "type": "uint256"
        }
      ],
      "name": "toAffine",
      "outputs": [
        {
          "internalType": "uint256",
          "name": "",
          "type": "uint256"
        },
        {
          "internalType": "uint256",
          "name": "",
          "type": "uint256"
        }
      ],
      "stateMutability": "pure",
      "type": "function"
    },
    {
      "inputs": [
        {
          "internalType": "uint8",
          "name": "_prefix",
          "type": "uint8"
        },
        {
          "internalType": "uint256",
          "name": "_x",
          "type": "uint256"
        },
        {
          "internalType": "uint256",
          "name": "_aa",
          "type": "uint256"
        },
        {
          "internalType": "uint256",
          "name": "_bb",
          "type": "uint256"
        },
        {
          "internalType": "uint256",
          "name": "_pp",
          "type": "uint256"
        }
      ],
      "name": "deriveY",
      "outputs": [
        {
          "internalType": "uint256",
          "name": "",
          "type": "uint256"
        }
      ],
      "stateMutability": "pure",
      "type": "function"
    },
    {
      "inputs": [
        {
          "internalType": "uint256",
          "name": "_x",
          "type": "uint256"
        },
        {
          "internalType": "uint256",
          "name": "_y",
          "type": "uint256"
        },
        {
          "internalType": "uint256",
          "name": "_aa",
          "type": "uint256"
        },
        {
          "internalType": "uint256",
          "name": "_bb",
          "type": "uint256"
        },
        {
          "internalType": "uint256",
          "name": "_pp",
          "type": "uint256"
        }
      ],
      "name": "isOnCurve",
      "outputs": [
        {
          "internalType": "bool",
          "name": "",
          "type": "bool"
        }
      ],
      "stateMutability": "pure",
      "type": "function"
    },
    {
      "inputs": [
        {
          "internalType": "uint256",
          "name": "_x",
          "type": "uint256"
        },
        {
          "internalType": "uint256",
          "name": "_y",
          "type": "uint256"
        },
        {
          "internalType": "uint256",
          "name": "_pp",
          "type": "uint256"
        }
      ],
      "name": "ecInv",
      "outputs": [
        {
          "internalType": "uint256",
          "name": "",
          "type": "uint256"
        },
        {
          "internalType": "uint256",
          "name": "",
          "type": "uint256"
        }
      ],
      "stateMutability": "pure",
      "type": "function"
    },
    {
      "inputs": [
        {
          "internalType": "uint256",
          "name": "_x1",
          "type": "uint256"
        },
        {
          "internalType": "uint256",
          "name": "_y1",
          "type": "uint256"
        },
        {
          "internalType": "uint256",
          "name": "_x2",
          "type": "uint256"
        },
        {
          "internalType": "uint256",
          "name": "_y2",
          "type": "uint256"
        },
        {
          "internalType": "uint256",
          "name": "_aa",
          "type": "uint256"
        },
        {
          "internalType": "uint256",
          "name": "_pp",
          "type": "uint256"
        }
      ],
      "name": "ecAdd",
      "outputs": [
        {
          "internalType": "uint256",
          "name": "",
          "type": "uint256"
        },
        {
          "internalType": "uint256",
          "name": "",
          "type": "uint256"
        }
      ],
      "stateMutability": "pure",
      "type": "function"
    },
    {
      "inputs": [
        {
          "internalType": "uint256",
          "name": "_x1",
          "type": "uint256"
        },
        {
          "internalType": "uint256",
          "name": "_y1",
          "type": "uint256"
        },
        {
          "internalType": "uint256",
          "name": "_x2",
          "type": "uint256"
        },
        {
          "internalType": "uint256",
          "name": "_y2",
          "type": "uint256"
        },
        {
          "internalType": "uint256",
          "name": "_aa",
          "type": "uint256"
        },
        {
          "internalType": "uint256",
          "name": "_pp",
          "type": "uint256"
        }
      ],
      "name": "ecSub",
      "outputs": [
        {
          "internalType": "uint256",
          "name": "",
          "type": "uint256"
        },
        {
          "internalType": "uint256",
          "name": "",
          "type": "uint256"
        }
      ],
      "stateMutability": "pure",
      "type": "function"
    },
    {
      "inputs": [
        {
          "internalType": "uint256",
          "name": "_k",
          "type": "uint256"
        },
        {
          "internalType": "uint256",
          "name": "_x",
          "type": "uint256"
        },
        {
          "internalType": "uint256",
          "name": "_y",
          "type": "uint256"
        },
        {
          "internalType": "uint256",
          "name": "_aa",
          "type": "uint256"
        },
        {
          "internalType": "uint256",
          "name": "_pp",
          "type": "uint256"
        }
      ],
      "name": "ecMul",
      "outputs": [
        {
          "internalType": "uint256",
          "name": "",
          "type": "uint256"
        },
        {
          "internalType": "uint256",
          "name": "",
          "type": "uint256"
        }
      ],
      "stateMutability": "pure",
      "type": "function"
    },
    {
      "inputs": [
        {
          "internalType": "uint256",
          "name": "_x1",
          "type": "uint256"
        },
        {
          "internalType": "uint256",
          "name": "_y1",
          "type": "uint256"
        },
        {
          "internalType": "uint256",
          "name": "_z1",
          "type": "uint256"
        },
        {
          "internalType": "uint256",
          "name": "_x2",
          "type": "uint256"
        },
        {
          "internalType": "uint256",
          "name": "_y2",
          "type": "uint256"
        },
        {
          "internalType": "uint256",
          "name": "_z2",
          "type": "uint256"
        },
        {
          "internalType": "uint256",
          "name": "_pp",
          "type": "uint256"
        }
      ],
      "name": "jacAdd",
      "outputs": [
        {
          "internalType": "uint256",
          "name": "",
          "type": "uint256"
        },
        {
          "internalType": "uint256",
          "name": "",
          "type": "uint256"
        },
        {
          "internalType": "uint256",
          "name": "",
          "type": "uint256"
        }
      ],
      "stateMutability": "pure",
      "type": "function"
    },
    {
      "inputs": [
        {
          "internalType": "uint256",
          "name": "_x",
          "type": "uint256"
        },
        {
          "internalType": "uint256",
          "name": "_y",
          "type": "uint256"
        },
        {
          "internalType": "uint256",
          "name": "_z",
          "type": "uint256"
        },
        {
          "internalType": "uint256",
          "name": "_aa",
          "type": "uint256"
        },
        {
          "internalType": "uint256",
          "name": "_pp",
          "type": "uint256"
        }
      ],
      "name": "jacDouble",
      "outputs": [
        {
          "internalType": "uint256",
          "name": "",
          "type": "uint256"
        },
        {
          "internalType": "uint256",
          "name": "",
          "type": "uint256"
        },
        {
          "internalType": "uint256",
          "name": "",
          "type": "uint256"
        }
      ],
      "stateMutability": "pure",
      "type": "function"
    },
    {
      "inputs": [
        {
          "internalType": "uint256",
          "name": "_d",
          "type": "uint256"
        },
        {
          "internalType": "uint256",
          "name": "_x",
          "type": "uint256"
        },
        {
          "internalType": "uint256",
          "name": "_y",
          "type": "uint256"
        },
        {
          "internalType": "uint256",
          "name": "_z",
          "type": "uint256"
        },
        {
          "internalType": "uint256",
          "name": "_aa",
          "type": "uint256"
        },
        {
          "internalType": "uint256",
          "name": "_pp",
          "type": "uint256"
        }
      ],
      "name": "jacMul",
      "outputs": [
        {
          "internalType": "uint256",
          "name": "",
          "type": "uint256"
        },
        {
          "internalType": "uint256",
          "name": "",
          "type": "uint256"
        },
        {
          "internalType": "uint256",
          "name": "",
          "type": "uint256"
        }
      ],
      "stateMutability": "pure",
      "type": "function"
    },
    {
      "inputs": [
        {
          "internalType": "uint256",
          "name": "_k",
          "type": "uint256"
        },
        {
          "internalType": "uint256",
          "name": "_nn",
          "type": "uint256"
        },
        {
          "internalType": "uint256",
          "name": "_lambda",
          "type": "uint256"
        }
      ],
      "name": "decomposeScalar",
      "outputs": [
        {
          "internalType": "int256",
          "name": "",
          "type": "int256"
        },
        {
          "internalType": "int256",
          "name": "",
          "type": "int256"
        }
      ],
      "stateMutability": "pure",
      "type": "function"
    },
    {
      "inputs": [
        {
          "internalType": "int256[4]",
          "name": "_scalars",
          "type": "int256[4]"
        },
        {
          "internalType": "uint256[4]",
          "name": "_points",
          "type": "uint256[4]"
        },
        {
          "internalType": "uint256",
          "name": "_aa",
          "type": "uint256"
        },
        {
          "internalType": "uint256",
          "name": "_beta",
          "type": "uint256"
        },
        {
          "internalType": "uint256",
          "name": "_pp",
          "type": "uint256"
        }
      ],
      "name": "ecSimMul",
      "outputs": [
        {
          "internalType": "uint256",
          "name": "",
          "type": "uint256"
        },
        {
          "internalType": "uint256",
          "name": "",
          "type": "uint256"
        }
      ],
      "stateMutability": "pure",
      "type": "function"
    }
  ],
  "bytecode": "0x608060405234801561001057600080fd5b50613946806100206000396000f3fe608060405234801561001057600080fd5b50600436106100ea5760003560e01c80638ba5ceeb1161008c578063c4371a1c11610066578063c4371a1c1461051e578063c5e45aa414610585578063cdefc41614610600578063ff4f4b86146106e0576100ea565b80638ba5ceeb146103fe578063ad69caa51461046b578063bb25afb7146104c1576100ea565b806337103a67116100c857806337103a671461022e5780635bf11ed31461029a57806367e49fcf146103155780637559d550146103a1576100ea565b806312f212e6146100ef5780631b54f82414610171578063364b62d5146101bd575b600080fd5b61014d600480360360c081101561010557600080fd5b81019080803590602001909291908035906020019092919080359060200190929190803590602001909291908035906020019092919080359060200190929190505050610758565b60405180848152602001838152602001828152602001935050505060405180910390f35b6101a76004803603604081101561018757600080fd5b81019080803590602001909291908035906020019092919050505061077d565b6040518082815260200191505060405180910390f35b610211600480360360a08110156101d357600080fd5b810190808035906020019092919080359060200190929190803590602001909291908035906020019092919080359060200190929190505050610791565b604051808381526020018281526020019250505060405180910390f35b610282600480360360a081101561024457600080fd5b8101908080359060200190929190803590602001909291908035906020019092919080359060200190929190803590602001909291905050506107af565b60405180821515815260200191505060405180910390f35b6102f8600480360360c08110156102b057600080fd5b810190808035906020019092919080359060200190929190803590602001909291908035906020019092919080359060200190929190803590602001909291905050506107c9565b604051808381526020018281526020019250505060405180910390f35b61037d600480360360e081101561032b57600080fd5b81019080803590602001909291908035906020019092919080359060200190929190803590602001909291908035906020019092919080359060200190929190803590602001909291905050506107e9565b60405180848152602001838152602001828152602001935050505060405180910390f35b6103e1600480360360608110156103b757600080fd5b81019080803590602001909291908035906020019092919080359060200190929190505050610810565b604051808381526020018281526020019250505060405180910390f35b610455600480360360a081101561041457600080fd5b81019080803560ff1690602001909291908035906020019092919080359060200190929190803590602001909291908035906020019092919050505061082a565b6040518082815260200191505060405180910390f35b6104ab6004803603606081101561048157600080fd5b81019080803590602001909291908035906020019092919080359060200190929190505050610844565b6040518082815260200191505060405180910390f35b610501600480360360608110156104d757600080fd5b8101908080359060200190929190803590602001909291908035906020019092919050505061085a565b604051808381526020018281526020019250505060405180910390f35b6105686004803603608081101561053457600080fd5b8101908080359060200190929190803590602001909291908035906020019092919080359060200190929190505050610874565b604051808381526020018281526020019250505060405180910390f35b6105e3600480360360c081101561059b57600080fd5b81019080803590602001909291908035906020019092919080359060200190929190803590602001909291908035906020019092919080359060200190929190505050610890565b604051808381526020018281526020019250505060405180910390f35b6106c3600480360361016081101561061757600080fd5b8101908080608001906004806020026040519081016040528092919082600460200280828437600081840152601f19601f820116905080830192505050505050919291929080608001906004806020026040519081016040528092919082600460200280828437600081840152601f19601f82011690508083019250505050505091929192908035906020019092919080359060200190929190803590602001909291905050506108b0565b604051808381526020018281526020019250505060405180910390f35b610734600480360360a08110156106f657600080fd5b8101908080359060200190929190803590602001909291908035906020019092919080359060200190929190803590602001909291905050506108ce565b60405180848152602001838152602001828152602001935050505060405180910390f35b600080600061076b8989898989896108f1565b92509250925096509650969350505050565b6000610789838361098f565b905092915050565b6000806107a18787878787610a83565b915091509550959350505050565b60006107be8686868686610abd565b905095945050505050565b6000806107da888888888888610b61565b91509150965096945050505050565b60008060006107fd8a8a8a8a8a8a8a610b95565b9250925092509750975097945050505050565b60008061081e858585611066565b91509150935093915050565b60006108398686868686611082565b905095945050505050565b6000610851848484611171565b90509392505050565b60008061086885858561129f565b91509150935093915050565b60008061088386868686611851565b9150915094509492505050565b6000806108a18888888888886118ac565b91509150965096945050505050565b6000806108c0878787878761193a565b915091509550959350505050565b60008060006108e088888888886119d9565b925092509250955095509592505050565b60008060008089141561090c57878787925092509250610983565b60008990506000806000600190505b60008414610975576000600185161461094a5761093d8383838f8f8f8e610b95565b8093508194508295505050505b6002848161095457fe5b0493506109648c8c8c8c8c6119d9565b809c50819d50829e5050505061091b565b828282965096509650505050505b96509650969350505050565b60008083141580156109a15750818314155b80156109ae575060008214155b610a20576040517f08c379a000000000000000000000000000000000000000000000000000000000815260040180806020018281038252600e8152602001807f496e76616c6964206e756d62657200000000000000000000000000000000000081525060200191505060405180910390fd5b60008060019050600084905060005b60008714610a7657868281610a4057fe5b049050828680610a4c57fe5b8780610a5457fe5b8584098803860880945081955050508687820283038098508193505050610a2f565b8394505050505092915050565b6000806000806000610a9a8a8a8a60018b8b6108f1565b925092509250610aac83838389611851565b945094505050509550959350505050565b60008560001480610ace5750818610155b80610ad95750846000145b80610ae45750818510155b15610af25760009050610b58565b60008280610afc57fe5b868709905060008380610b0b57fe5b888580610b1457fe5b8a8b0909905060008614610b3a578380610b2a57fe5b8480610b3257fe5b878a09820890505b60008514610b50578380610b4a57fe5b85820890505b808214925050505b95945050505050565b600080600080610b72888887611066565b91509150610b848a8a84848a8a6118ac565b935093505050965096945050505050565b6000806000808a148015610ba95750600089145b15610bbc57868686925092509250611059565b600087148015610bcc5750600086145b15610bdf57898989925092509250611059565b610be76137ea565b8480610bef57fe5b898a0981600060048110610bff57fe5b6020020181815250508480610c1057fe5b81600060048110610c1d57fe5b60200201518a0981600160048110610c3157fe5b6020020181815250508480610c4257fe5b86870981600260048110610c5257fe5b6020020181815250508480610c6357fe5b81600260048110610c7057fe5b6020020151870981600360048110610c8457fe5b60200201818152505060405180608001604052808680610ca057fe5b83600260048110610cad57fe5b60200201518e0981526020018680610cc157fe5b83600360048110610cce57fe5b60200201518d0981526020018680610ce257fe5b83600060048110610cef57fe5b60200201518b0981526020018680610d0357fe5b83600160048110610d1057fe5b60200201518a09815250905080600260048110610d2957fe5b602002015181600060048110610d3b57fe5b6020020151141580610d6f575080600360048110610d5557fe5b602002015181600160048110610d6757fe5b602002015114155b610de1576040517f08c379a000000000000000000000000000000000000000000000000000000000815260040180806020018281038252601e8152602001807f557365206a6163446f75626c652066756e6374696f6e20696e7374656164000081525060200191505060405180910390fd5b610de96137ea565b8580610df157fe5b82600060048110610dfe57fe5b6020020151870383600260048110610e1257fe5b60200201510881600060048110610e2557fe5b6020020181815250508580610e3657fe5b82600160048110610e4357fe5b6020020151870383600360048110610e5757fe5b60200201510881600160048110610e6a57fe5b6020020181815250508580610e7b57fe5b81600060048110610e8857fe5b602002015182600060048110610e9a57fe5b60200201510981600260048110610ead57fe5b6020020181815250508580610ebe57fe5b81600060048110610ecb57fe5b602002015182600260048110610edd57fe5b60200201510981600360048110610ef057fe5b60200201818152505060008680610f0357fe5b82600360048110610f1057fe5b602002015188038880610f1f57fe5b84600160048110610f2c57fe5b602002015185600160048110610f3e57fe5b6020020151090890508680610f4f57fe5b8780610f5757fe5b8880610f5f57fe5b84600260048110610f6c57fe5b602002015186600060048110610f7e57fe5b60200201510960020988038208905060008780610f9757fe5b8880610f9f57fe5b838a038a80610faa57fe5b86600260048110610fb757fe5b602002015188600060048110610fc957fe5b6020020151090884600160048110610fdd57fe5b60200201510990508780610fed57fe5b8880610ff557fe5b8460036004811061100257fe5b60200201518660016004811061101457fe5b6020020151098903820890506000888061102a57fe5b898061103257fe5b8b8f098560006004811061104257fe5b602002015109905082828297509750975050505050505b9750975097945050505050565b60008084838585038161107557fe5b0691509150935093915050565b600060028660ff161480611099575060038660ff16145b6110ee576040517f08c379a00000000000000000000000000000000000000000000000000000000081526004018080602001828103825260228152602001806138ef6022913960400191505060405180910390fd5b600082806110f857fe5b838061110057fe5b85858061110957fe5b888a0908848061111557fe5b858061111d57fe5b898a09890908905061113d816004600186018161113657fe5b0485611171565b905060008060028960ff1684018161115157fe5b061461115f57818403611161565b815b9050809250505095945050505050565b6000808214156111e9576040517f08c379a000000000000000000000000000000000000000000000000000000000815260040180806020018281038252600f8152602001807f4d6f64756c7573206973207a65726f000000000000000000000000000000000081525060200191505060405180910390fd5b60008414156111fb5760009050611298565b600083141561120d5760019050611298565b60006001905060007f800000000000000000000000000000000000000000000000000000000000000090505b600081111561129257838186161515870a85848509099150836002820486161515870a85848509099150836004820486161515870a85848509099150836008820486161515870a85848509099150601081049050611239565b81925050505b9392505050565b60008060008486816112ad57fe5b0690506112b861380c565b6001816000600281106112c757fe5b6020020181815250506000816001600281106112df57fe5b6020020181815250506112f061382e565b85816000600281106112fe57fe5b602002018181525050868160016002811061131557fe5b6020020181815250505b7001000000000000000000000000000000008160006002811061133e57fe5b60200201511015806113745750868160006002811061135957fe5b60200201518260006002811061136b57fe5b60200201510210155b156114795760008160006002811061138857fe5b60200201518260016002811061139a57fe5b6020020151816113a657fe5b049050816000600281106113b657fe5b6020020151826000600281106113c857fe5b60200201518202836001600281106113dc57fe5b602002015103836001600281106113ef57fe5b602002018460006002811061140057fe5b60200201828152508281525050508260006002811061141b57fe5b60200201518360006002811061142d57fe5b602002015182028460016002811061144157fe5b6020020151038460016002811061145457fe5b602002018560006002811061146557fe5b60200201828152508281525050505061131f565b611481613850565b8160006002811061148e57fe5b6020020151816000600481106114a057fe5b602002018181525050826000600281106114b657fe5b6020020151600003816001600481106114cb57fe5b602002018181525050816001600281106114e157fe5b6020020151816002600481106114f357fe5b6020020181815250508260016002811061150957fe5b60200201516000038160036004811061151e57fe5b60200201818152505061152f613872565b61154a8260036004811061153f57fe5b602002015186611af8565b8360006003811061155757fe5b602002018460016003811061156857fe5b602002018560026003811061157957fe5b60200201838152508381525083815250505050611594613872565b6115b2836001600481106115a457fe5b602002015160000387611af8565b836000600381106115bf57fe5b60200201846001600381106115d057fe5b60200201856002600381106115e157fe5b602002018381525083815250838152505050506115fc61382e565b6116708360016003811061160c57fe5b60200201516fffffffffffffffffffffffffffffffff1660808560006003811061163257fe5b60200201516fffffffffffffffffffffffffffffffff16901b1760028d8161165657fe5b048560026003811061166457fe5b6020020151018d611bd6565b8260006002811061167d57fe5b602002018360016002811061168e57fe5b60200201828152508281525050506116a461382e565b611718836001600381106116b457fe5b60200201516fffffffffffffffffffffffffffffffff166080856000600381106116da57fe5b60200201516fffffffffffffffffffffffffffffffff16901b1760028e816116fe57fe5b048560026003811061170c57fe5b6020020151018e611bd6565b8260006002811061172557fe5b602002018360016002811061173657fe5b602002018281525082815250505060008c8660026004811061175457fe5b60200201518360006002811061176657fe5b6020020151028760006004811061177957fe5b60200201518560006002811061178b57fe5b6020020151028b03038161179b57fe5b07905060008d876003600481106117ae57fe5b6020020151846000600281106117c057fe5b602002015102886001600481106117d357fe5b6020020151866000600281106117e557fe5b60200201516000030203816117f657fe5b07905060028e8161180357fe5b0461180d83611d4c565b1115611819578d820391505b60028e8161182357fe5b0461182d82611d4c565b1115611839578d810390505b81819b509b5050505050505050505050935093915050565b6000806000611860858561098f565b90506000848061186c57fe5b82830990506000858061187b57fe5b828a0990506000868061188a57fe5b878061189257fe5b8486098a0990508181955095505050505094509492505050565b6000806000806000888b14156118fd57600086806118c657fe5b898c0814156118de576000809450945050505061192f565b6118ec8b8b60018a8a6119d9565b80935081945082955050505061191b565b61190e8b8b60018c8c60018c610b95565b8093508194508295505050505b61192783838389611851565b945094505050505b965096945050505050565b6000806119456137ea565b60008060005b600481101561199f5761196d8b826004811061196357fe5b6020020151611d69565b85836004811061197957fe5b6020020181945082815250505082821115611992578192505b808060010191505061194b565b5060008060006119b386868e8e8e8e611e14565b9250925092506119c58383838c611851565b975097505050505050509550959350505050565b6000806000808614156119f457878787925092509250611aed565b600084806119fe57fe5b898a09905060008580611a0d57fe5b898a09905060008680611a1c57fe5b898a09905060008780611a2b57fe5b8880611a3357fe5b848e09600409905060008880611a4557fe5b8980611a4d57fe5b8a80611a5557fe5b8586098c098a80611a6257fe5b876003090890508880611a7157fe5b8980611a7957fe5b8384088a038a80611a8657fe5b8384090894508880611a9457fe5b8980611a9c57fe5b8a80611aa457fe5b8687096008098a038a80611ab457fe5b8b80611abc57fe5b888d03860884090893508880611ace57fe5b8980611ad657fe5b8c8e09600209925084848497509750975050505050505b955095509592505050565b600080600080608086901c905060006fffffffffffffffffffffffffffffffff871690506000608087901c905060006fffffffffffffffffffffffffffffffff881690506000818402905060006fffffffffffffffffffffffffffffffff848602166fffffffffffffffffffffffffffffffff84880216608084901c0101905060006080858702901c6080858902901c868902608085901c01010190506fffffffffffffffffffffffffffffffff821691506fffffffffffffffffffffffffffffffff83169250808284995099509950505050505050509250925092565b6000806000838681611be457fe5b06905060005b60008186901c1115611c03578080600101915050611bea565b8061010003905060808111611c1e578060800386901c611c26565b6080810386901b5b8188901b01915060006fffffffffffffffffffffffffffffffff8288901b16905060008060808489901b901c6fffffffffffffffffffffffffffffffff858a901b1691509150600080838781611c7857fe5b049050838781611c8457fe5b0691506000836fffffffffffffffffffffffffffffffff83160290506000608082901c85608085901c020190506fffffffffffffffffffffffffffffffff821691505b83811180611cdf57508381148015611cde57508682115b5b15611d17578280600190039350508487019650608087901c8601840193506fffffffffffffffffffffffffffffffff87169650611cc7565b600088838f6080858903901b0103901c90508c8f81611d3257fe5b048401819b509b5050505050505050505050935093915050565b6000808212611d5d57819050611d64565b8160000390505b919050565b6000806000808412611d7c576001611d9e565b7fffffffffffffffffffffffffffffffffffffffffffffffffffffffffffffffff5b905060008482029050600080600090506000604051925061012c83016040525b6000841115611e04576001841615611df357601084069050601060088211028185030193506008850260080385820201828401535b600182019150600284049350611dbe565b5081819550955050505050915091565b6000806000611e21613872565b611e29613894565b611e36818a8a8a8a612a2b565b6000805b60008c11156129df578b80600190039c5050611e8c84600060038110611e5c57fe5b602002015185600160038110611e6e57fe5b602002015186600260038110611e8057fe5b60200201518d8c6119d9565b86600060038110611e9957fe5b6020020187600160038110611eaa57fe5b6020020188600260038110611ebb57fe5b602002018381525083815250838152505050508b8d600060048110611edc57fe5b6020020151019050805160001a9150600882111561204557611ffe84600060038110611f0457fe5b602002015185600160038110611f1657fe5b602002015186600260038110611f2857fe5b602002015186600060048110611f3a57fe5b6020020151600287600f0381611f4c57fe5b0460048110611f5757fe5b6020020151600060038110611f6857fe5b60200201518c88600060048110611f7b57fe5b6020020151600289600f0381611f8d57fe5b0460048110611f9857fe5b6020020151600160038110611fa957fe5b60200201518e0381611fb757fe5b0688600060048110611fc557fe5b6020020151600289600f0381611fd757fe5b0460048110611fe257fe5b6020020151600260038110611ff357fe5b60200201518e610b95565b8660006003811061200b57fe5b602002018760016003811061201c57fe5b602002018860026003811061202d57fe5b60200201838152508381525083815250505050612191565b60008211156121905761214d8460006003811061205e57fe5b60200201518560016003811061207057fe5b60200201518660026003811061208257fe5b60200201518660006004811061209457fe5b6020020151600260018803816120a657fe5b04600481106120b157fe5b60200201516000600381106120c257fe5b6020020151876000600481106120d457fe5b6020020151600260018903816120e657fe5b04600481106120f157fe5b602002015160016003811061210257fe5b60200201518860006004811061211457fe5b6020020151600260018a038161212657fe5b046004811061213157fe5b602002015160026003811061214257fe5b60200201518e610b95565b8660006003811061215a57fe5b602002018760016003811061216b57fe5b602002018860026003811061217c57fe5b602002018381525083815250838152505050505b5b8b8d60016004811061219f57fe5b6020020151019050805160001a91506008821115612308576122c1846000600381106121c757fe5b6020020151856001600381106121d957fe5b6020020151866002600381106121eb57fe5b6020020151866001600481106121fd57fe5b6020020151600287600f038161220f57fe5b046004811061221a57fe5b602002015160006003811061222b57fe5b60200201518c8860016004811061223e57fe5b6020020151600289600f038161225057fe5b046004811061225b57fe5b602002015160016003811061226c57fe5b60200201518e038161227a57fe5b068860016004811061228857fe5b6020020151600289600f038161229a57fe5b04600481106122a557fe5b60200201516002600381106122b657fe5b60200201518e610b95565b866000600381106122ce57fe5b60200201876001600381106122df57fe5b60200201886002600381106122f057fe5b60200201838152508381525083815250505050612454565b6000821115612453576124108460006003811061232157fe5b60200201518560016003811061233357fe5b60200201518660026003811061234557fe5b60200201518660016004811061235757fe5b60200201516002600188038161236957fe5b046004811061237457fe5b602002015160006003811061238557fe5b60200201518760016004811061239757fe5b6020020151600260018903816123a957fe5b04600481106123b457fe5b60200201516001600381106123c557fe5b6020020151886001600481106123d757fe5b6020020151600260018a03816123e957fe5b04600481106123f457fe5b602002015160026003811061240557fe5b60200201518e610b95565b8660006003811061241d57fe5b602002018760016003811061242e57fe5b602002018860026003811061243f57fe5b602002018381525083815250838152505050505b5b8b8d60026004811061246257fe5b6020020151019050805160001a915060088211156125cb576125848460006003811061248a57fe5b60200201518560016003811061249c57fe5b6020020151866002600381106124ae57fe5b6020020151866002600481106124c057fe5b6020020151600287600f03816124d257fe5b04600481106124dd57fe5b60200201516000600381106124ee57fe5b60200201518c8860026004811061250157fe5b6020020151600289600f038161251357fe5b046004811061251e57fe5b602002015160016003811061252f57fe5b60200201518e038161253d57fe5b068860026004811061254b57fe5b6020020151600289600f038161255d57fe5b046004811061256857fe5b602002015160026003811061257957fe5b60200201518e610b95565b8660006003811061259157fe5b60200201876001600381106125a257fe5b60200201886002600381106125b357fe5b60200201838152508381525083815250505050612717565b6000821115612716576126d3846000600381106125e457fe5b6020020151856001600381106125f657fe5b60200201518660026003811061260857fe5b60200201518660026004811061261a57fe5b60200201516002600188038161262c57fe5b046004811061263757fe5b602002015160006003811061264857fe5b60200201518760026004811061265a57fe5b60200201516002600189038161266c57fe5b046004811061267757fe5b602002015160016003811061268857fe5b60200201518860026004811061269a57fe5b6020020151600260018a03816126ac57fe5b04600481106126b757fe5b60200201516002600381106126c857fe5b60200201518e610b95565b866000600381106126e057fe5b60200201876001600381106126f157fe5b602002018860026003811061270257fe5b602002018381525083815250838152505050505b5b8b8d60036004811061272557fe5b6020020151019050805160001a9150600882111561288e576128478460006003811061274d57fe5b60200201518560016003811061275f57fe5b60200201518660026003811061277157fe5b60200201518660036004811061278357fe5b6020020151600287600f038161279557fe5b04600481106127a057fe5b60200201516000600381106127b157fe5b60200201518c886003600481106127c457fe5b6020020151600289600f03816127d657fe5b04600481106127e157fe5b60200201516001600381106127f257fe5b60200201518e038161280057fe5b068860036004811061280e57fe5b6020020151600289600f038161282057fe5b046004811061282b57fe5b602002015160026003811061283c57fe5b60200201518e610b95565b8660006003811061285457fe5b602002018760016003811061286557fe5b602002018860026003811061287657fe5b602002018381525083815250838152505050506129da565b60008211156129d957612996846000600381106128a757fe5b6020020151856001600381106128b957fe5b6020020151866002600381106128cb57fe5b6020020151866003600481106128dd57fe5b6020020151600260018803816128ef57fe5b04600481106128fa57fe5b602002015160006003811061290b57fe5b60200201518760036004811061291d57fe5b60200201516002600189038161292f57fe5b046004811061293a57fe5b602002015160016003811061294b57fe5b60200201518860036004811061295d57fe5b6020020151600260018a038161296f57fe5b046004811061297a57fe5b602002015160026003811061298b57fe5b60200201518e610b95565b866000600381106129a357fe5b60200201876001600381106129b457fe5b60200201886002600381106129c557fe5b602002018381525083815250838152505050505b5b611e3a565b836000600381106129ec57fe5b6020020151846001600381106129fe57fe5b602002015185600260038110612a1057fe5b60200201519650965096505050505096509650969350505050565b612a336138c1565b612a3b613872565b86600060048110612a4857fe5b60200201519150604051806060016040528087600060048110612a6757fe5b6020020151815260200187600160048110612a7e57fe5b60200201518152602001600181525082600060048110612a9a57fe5b6020020181905250612af482600060048110612ab257fe5b6020020151600060038110612ac357fe5b602002015183600060048110612ad557fe5b6020020151600160038110612ae657fe5b6020020151600188876119d9565b83600060038110612b0157fe5b6020020184600160038110612b1257fe5b6020020185600260038110612b2357fe5b60200201838152508381525083815250505050612bde81600060038110612b4657fe5b602002015182600160038110612b5857fe5b602002015183600260038110612b6a57fe5b602002015185600060048110612b7c57fe5b6020020151600060038110612b8d57fe5b602002015186600060048110612b9f57fe5b6020020151600160038110612bb057fe5b602002015187600060048110612bc257fe5b6020020151600260038110612bd357fe5b602002015189610b95565b84600160048110612beb57fe5b6020020151600060038110612bfc57fe5b6020020185600160048110612c0d57fe5b6020020151600160038110612c1e57fe5b6020020186600160048110612c2f57fe5b6020020151600260038110612c4057fe5b60200201838152508381525083815250505050612cfb81600060038110612c6357fe5b602002015182600160038110612c7557fe5b602002015183600260038110612c8757fe5b602002015185600160048110612c9957fe5b6020020151600060038110612caa57fe5b602002015186600160048110612cbc57fe5b6020020151600160038110612ccd57fe5b602002015187600160048110612cdf57fe5b6020020151600260038110612cf057fe5b602002015189610b95565b84600260048110612d0857fe5b6020020151600060038110612d1957fe5b6020020185600260048110612d2a57fe5b6020020151600160038110612d3b57fe5b6020020186600260048110612d4c57fe5b6020020151600260038110612d5d57fe5b60200201838152508381525083815250505050612e1881600060038110612d8057fe5b602002015182600160038110612d9257fe5b602002015183600260038110612da457fe5b602002015185600260048110612db657fe5b6020020151600060038110612dc757fe5b602002015186600260048110612dd957fe5b6020020151600160038110612dea57fe5b602002015187600260048110612dfc57fe5b6020020151600260038110612e0d57fe5b602002015189610b95565b84600360048110612e2557fe5b6020020151600060038110612e3657fe5b6020020185600360048110612e4757fe5b6020020151600160038110612e5857fe5b6020020186600360048110612e6957fe5b6020020151600260038110612e7a57fe5b6020020183815250838152508381525050505060405180606001604052808480612ea057fe5b88600060048110612ead57fe5b60200201518709815260200187600160048110612ec657fe5b60200201518152602001600181525087600160048110612ee257fe5b6020020151600060048110612ef357fe5b602002018190525060405180606001604052808480612f0e57fe5b84600160048110612f1b57fe5b6020020151600060038110612f2c57fe5b60200201518709815260200183600160048110612f4557fe5b6020020151600160038110612f5657fe5b6020020151815260200183600160048110612f6d57fe5b6020020151600260038110612f7e57fe5b602002015181525087600160048110612f9357fe5b6020020151600160048110612fa457fe5b602002018190525060405180606001604052808480612fbf57fe5b84600260048110612fcc57fe5b6020020151600060038110612fdd57fe5b60200201518709815260200183600260048110612ff657fe5b602002015160016003811061300757fe5b602002015181526020018360026004811061301e57fe5b602002015160026003811061302f57fe5b60200201518152508760016004811061304457fe5b602002015160026004811061305557fe5b60200201819052506040518060600160405280848061307057fe5b8460036004811061307d57fe5b602002015160006003811061308e57fe5b602002015187098152602001836003600481106130a757fe5b60200201516001600381106130b857fe5b60200201518152602001836003600481106130cf57fe5b60200201516002600381106130e057fe5b6020020151815250876001600481106130f557fe5b602002015160036004811061310657fe5b60200201819052508660026004811061311b57fe5b6020020151915060405180606001604052808760026004811061313a57fe5b602002015181526020018760036004811061315157fe5b6020020151815260200160018152508260006004811061316d57fe5b60200201819052506131c78260006004811061318557fe5b602002015160006003811061319657fe5b6020020151836000600481106131a857fe5b60200201516001600381106131b957fe5b6020020151600188876119d9565b836000600381106131d457fe5b60200201846001600381106131e557fe5b60200201856002600381106131f657fe5b602002018381525083815250838152505050506132b18160006003811061321957fe5b60200201518260016003811061322b57fe5b60200201518360026003811061323d57fe5b60200201518560006004811061324f57fe5b602002015160006003811061326057fe5b60200201518660006004811061327257fe5b602002015160016003811061328357fe5b60200201518760006004811061329557fe5b60200201516002600381106132a657fe5b602002015189610b95565b846001600481106132be57fe5b60200201516000600381106132cf57fe5b60200201856001600481106132e057fe5b60200201516001600381106132f157fe5b602002018660016004811061330257fe5b602002015160026003811061331357fe5b602002018381525083815250838152505050506133ce8160006003811061333657fe5b60200201518260016003811061334857fe5b60200201518360026003811061335a57fe5b60200201518560016004811061336c57fe5b602002015160006003811061337d57fe5b60200201518660016004811061338f57fe5b60200201516001600381106133a057fe5b6020020151876001600481106133b257fe5b60200201516002600381106133c357fe5b602002015189610b95565b846002600481106133db57fe5b60200201516000600381106133ec57fe5b60200201856002600481106133fd57fe5b602002015160016003811061340e57fe5b602002018660026004811061341f57fe5b602002015160026003811061343057fe5b602002018381525083815250838152505050506134eb8160006003811061345357fe5b60200201518260016003811061346557fe5b60200201518360026003811061347757fe5b60200201518560026004811061348957fe5b602002015160006003811061349a57fe5b6020020151866002600481106134ac57fe5b60200201516001600381106134bd57fe5b6020020151876002600481106134cf57fe5b60200201516002600381106134e057fe5b602002015189610b95565b846003600481106134f857fe5b602002015160006003811061350957fe5b602002018560036004811061351a57fe5b602002015160016003811061352b57fe5b602002018660036004811061353c57fe5b602002015160026003811061354d57fe5b602002018381525083815250838152505050506040518060600160405280848061357357fe5b8860026004811061358057fe5b6020020151870981526020018760036004811061359957fe5b602002015181526020016001815250876003600481106135b557fe5b60200201516000600481106135c657fe5b6020020181905250604051806060016040528084806135e157fe5b846001600481106135ee57fe5b60200201516000600381106135ff57fe5b6020020151870981526020018360016004811061361857fe5b602002015160016003811061362957fe5b602002015181526020018360016004811061364057fe5b602002015160026003811061365157fe5b60200201518152508760036004811061366657fe5b602002015160016004811061367757fe5b60200201819052506040518060600160405280848061369257fe5b8460026004811061369f57fe5b60200201516000600381106136b057fe5b602002015187098152602001836002600481106136c957fe5b60200201516001600381106136da57fe5b60200201518152602001836002600481106136f157fe5b602002015160026003811061370257fe5b60200201518152508760036004811061371757fe5b602002015160026004811061372857fe5b60200201819052506040518060600160405280848061374357fe5b8460036004811061375057fe5b602002015160006003811061376157fe5b6020020151870981526020018360036004811061377a57fe5b602002015160016003811061378b57fe5b60200201518152602001836003600481106137a257fe5b60200201516002600381106137b357fe5b6020020151815250876003600481106137c857fe5b60200201516003600481106137d957fe5b602002018190525050505050505050565b6040518060800160405280600490602082028036833780820191505090505090565b6040518060400160405280600290602082028036833780820191505090505090565b6040518060400160405280600290602082028036833780820191505090505090565b6040518060800160405280600490602082028036833780820191505090505090565b6040518060600160405280600390602082028036833780820191505090505090565b60405180608001604052806004905b6138ab6138c1565b8152602001906001900390816138a35790505090565b60405180608001604052806004905b6138d8613872565b8152602001906001900390816138d0579050509056fe496e76616c696420636f6d7072657373656420454320706f696e7420707265666978a2646970667358221220d21a9eecee9ec6e96aa9e71e008b1f1632bcbbc384825e16b50b16eb81fbdc2164736f6c634300060c0033",
  "immutableReferences": {},
  "source": "// SPDX-License-Identifier: MIT\n\npragma solidity 0.6.12;\n\nimport \"../EllipticCurve.sol\";\nimport \"../FastEcMul.sol\";\n\n\n/**\n * @title Test Helper for the EllipticCurve library\n * @author Witnet Foundation\n */\ncontract TestEllipticCurve {\n\n  function invMod(uint256 _x, uint256 _pp) public pure returns (uint256) {\n    return EllipticCurve.invMod(_x, _pp);\n  }\n\n  function expMod(uint256 _base, uint256 _exp, uint256 _pp) public pure returns (uint256) {\n    return EllipticCurve.expMod(_base, _exp, _pp);\n  }\n\n  function toAffine(\n    uint256 _x,\n    uint256 _y,\n    uint256 _z,\n    uint256 _pp)\n  public pure returns (uint256, uint256)\n  {\n    return EllipticCurve.toAffine(\n      _x,\n      _y,\n      _z,\n      _pp);\n  }\n\n  function deriveY(\n    uint8 _prefix,\n    uint256 _x,\n    uint256 _aa,\n    uint256 _bb,\n    uint256 _pp)\n  public pure returns (uint256)\n  {\n    return EllipticCurve.deriveY(\n      _prefix,\n      _x,\n      _aa,\n      _bb,\n      _pp);\n  }\n\n  function isOnCurve(\n    uint _x,\n    uint _y,\n    uint _aa,\n    uint _bb,\n    uint _pp)\n  public pure returns (bool)\n  {\n    return EllipticCurve.isOnCurve(\n      _x,\n      _y,\n      _aa,\n      _bb,\n      _pp);\n  }\n\n  function ecInv(\n    uint256 _x,\n    uint256 _y,\n    uint256 _pp)\n  public pure returns (uint256, uint256)\n  {\n    return EllipticCurve.ecInv(\n      _x,\n      _y,\n      _pp);\n  }\n\n  function ecAdd(\n    uint256 _x1,\n    uint256 _y1,\n    uint256 _x2,\n    uint256 _y2,\n    uint256 _aa,\n    uint256 _pp)\n  public pure returns(uint256, uint256)\n  {\n    return EllipticCurve.ecAdd(\n      _x1,\n      _y1,\n      _x2,\n      _y2,\n      _aa,\n      _pp);\n  }\n\n  function ecSub(\n    uint256 _x1,\n    uint256 _y1,\n    uint256 _x2,\n    uint256 _y2,\n    uint256 _aa,\n    uint256 _pp)\n  public pure returns(uint256, uint256)\n  {\n    return EllipticCurve.ecSub(\n      _x1,\n      _y1,\n      _x2,\n      _y2,\n      _aa,\n      _pp);\n  }\n\n  function ecMul(\n    uint256 _k,\n    uint256 _x,\n    uint256 _y,\n    uint256 _aa,\n    uint256 _pp)\n  public pure returns(uint256, uint256)\n  {\n    return EllipticCurve.ecMul(\n      _k,\n      _x,\n      _y,\n      _aa,\n      _pp);\n  }\n\n  function jacAdd(\n    uint256 _x1,\n    uint256 _y1,\n    uint256 _z1,\n    uint256 _x2,\n    uint256 _y2,\n    uint256 _z2,\n    uint256 _pp)\n  public pure returns (uint256, uint256, uint256)\n  {\n    return EllipticCurve.jacAdd(\n      _x1,\n      _y1,\n      _z1,\n      _x2,\n      _y2,\n      _z2,\n      _pp);\n  }\n\n  function jacDouble(\n    uint256 _x,\n    uint256 _y,\n    uint256 _z,\n    uint256 _aa,\n    uint256 _pp)\n  public pure returns (uint256, uint256, uint256)\n  {\n    return EllipticCurve.jacDouble(\n      _x,\n      _y,\n      _z,\n      _aa,\n      _pp);\n  }\n\n  function jacMul(\n    uint256 _d,\n    uint256 _x,\n    uint256 _y,\n    uint256 _z,\n    uint256 _aa,\n    uint256 _pp)\n  public pure returns (uint256, uint256, uint256)\n  {\n    return EllipticCurve.jacMul(\n      _d,\n      _x,\n      _y,\n      _z,\n      _aa,\n      _pp);\n  }\n\n  function decomposeScalar(uint256 _k, uint256 _nn, uint256 _lambda) public pure returns (int256, int256) {\n    return FastEcMul.decomposeScalar(_k, _nn, _lambda);\n  }\n\n  function ecSimMul(\n    int256[4] memory _scalars,\n    uint256[4] memory _points,\n    uint256 _aa,\n    uint256 _beta,\n    uint256 _pp)\n  public pure returns (uint256, uint256)\n  {\n    return FastEcMul.ecSimMul(\n      _scalars,\n      _points,\n      _aa,\n      _beta,\n      _pp);\n  }\n\n}",
  "sourcePath": "/home/elizabeth/atomic-swap/contracts/contracts/elliptic-curve-solidity/contracts/helpers/TestEllipticCurve.sol",
  "compiler": {
    "name": "solc",
    "version": "0.6.12+commit.27d51765.Emscripten.clang"
  },
  "schemaVersion": "3.4.3",
  "updatedAt": "2021-10-22T10:40:12.156Z",
  "devdoc": {
    "author": "Witnet Foundation",
    "kind": "dev",
    "methods": {},
    "title": "Test Helper for the EllipticCurve library",
    "version": 1
  },
  "userdoc": {
    "kind": "user",
    "methods": {},
    "version": 1
  }
}